:020000040000fa
:080000000002040000000000f2
:020000040000fa
:0400080002030000ef
:020000040000fa
:04000c0014030000d9
:020000040000fa
:0400100024030000c5
:020000040000fa
:040014000a030000db
:020000040000fa
:040018001c030000c5
:020000040000fa
:04001c00620400007a
:020000040000fa
:040020002c030000ad
:020000040000fa
:040024006204000072
:020000040000fa
:04002800620400006e
:020000040000fa
:04002c00620400006a
:020000040000fa
:040030006204000066
:020000040000fa
:040034006204000062
:020000040000fa
:04003800620400005e
:020000040000fa
:04003c00620400005a
:020000040000fa
:0400400012040000a6
:020000040000fa
:040044003a0400007a
:020000040000fa
:04004800620400004e
:020000040000fa
:04004c00620400004a
:020000040000fa
:040050006204000046
:020000040000fa
:040054008e03000017
:020000040000fa
:04005800340300006d
:020000040000fa
:04005c00620400003a
:020000040000fa
:040060006204000036
:020000040000fa
:040064006204000032
:020000040000fa
:04006800620400002e
:020000040000fa
:04006c00620400002a
:020000040000fa
:040070006204000026
:020000040000fa
:040074006204000022
:020000040000fa
:04007800620400001e
:020000040000fa
:04007c00620400001a
:020000040000fa
:040080006204000016
:020000040000fa
:040084006204000012
:020000040000fa
:04008800620400000e
:020000040000fa
:04008c00620400000a
:020000040000fa
:040090006204000006
:020000040000fa
:040094006204000002
:020000040000fa
:0400980062040000fe
:020000040000fa
:04009c0062040000fa
:020000040000fa
:0400a00062040000f6
:020000040000fa
:0400a40062040000f2
:020000040000fa
:0400a80062040000ee
:020000040000fa
:0400ac0062040000ea
:020000040000fa
:0400b00062040000e6
:020000040000fa
:0400b40062040000e2
:020000040000fa
:0400b80062040000de
:020000040000fa
:0400bc0062040000da
:020000040000fa
:0400c00062040000d6
:020000040000fa
:0400c40062040000d2
:020000040000fa
:0400c80062040000ce
:020000040000fa
:0400cc0062040000ca
:020000040000fa
:0400d00062040000c6
:020000040000fa
:0400d40062040000c2
:020000040000fa
:0400d80062040000be
:020000040000fa
:0400dc0062040000ba
:020000040000fa
:0400e00062040000b6
:020000040000fa
:0400e40062040000b2
:020000040000fa
:0400e80062040000ae
:020000040000fa
:0400ec00f403000019
:020000040000fa
:0400f00062040000a6
:020000040000fa
:0400f40062040000a2
:020000040000fa
:0400f800620400009e
:020000040000fa
:0400fc00620400009a
:020000040000fa
:040100006204000095
:020000040000fa
:040104006204000091
:020000040000fa
:04010800620400008d
:020000040000fa
:04010c006204000089
:020000040000fa
:040110006204000085
:020000040000fa
:040114006204000081
:020000040000fa
:04011800620400007d
:020000040000fa
:04011c006204000079
:020000040000fa
:040120006204000075
:020000040000fa
:040124006204000071
:020000040000fa
:04012800620400006d
:020000040000fa
:04012c006204000069
:020000040000fa
:040130006204000065
:020000040000fa
:040134006204000061
:020000040000fa
:04013800620400005d
:020000040000fa
:04013c006204000059
:020000040000fa
:040140006204000055
:020000040000fa
:040144006204000051
:020000040000fa
:04014800620400004d
:020000040000fa
:04014c006204000049
:020000040000fa
:040150006204000045
:020000040000fa
:040154006204000041
:020000040000fa
:04015800620400003d
:020000040000fa
:04015c006204000039
:020000040000fa
:040160006204000035
:020000040000fa
:040164006204000031
:020000040000fa
:04016800620400002d
:020000040000fa
:04016c006204000029
:020000040000fa
:040170006204000025
:020000040000fa
:040174006204000021
:020000040000fa
:04017800620400001d
:020000040000fa
:04017c006204000019
:020000040000fa
:040180006204000015
:020000040000fa
:040184006204000011
:020000040000fa
:04018800620400000d
:020000040000fa
:04018c006204000009
:020000040000fa
:040190006204000005
:020000040000fa
:040194006204000001
:020000040000fa
:0401980062040000fd
:020000040000fa
:04019c0062040000f9
:020000040000fa
:0401a00062040000f5
:020000040000fa
:0401a40062040000f1
:020000040000fa
:0401a80062040000ed
:020000040000fa
:0401ac0062040000e9
:020000040000fa
:0401b00062040000e5
:020000040000fa
:0401b40062040000e1
:020000040000fa
:0401b80062040000dd
:020000040000fa
:0401bc0062040000d9
:020000040000fa
:0401c00062040000d5
:020000040000fa
:0401c40062040000d1
:020000040000fa
:0401c80062040000cd
:020000040000fa
:0401cc0062040000c9
:020000040000fa
:0401d00062040000c5
:020000040000fa
:0401d40062040000c1
:020000040000fa
:0401d80062040000bd
:020000040000fa
:0401dc0062040000b9
:020000040000fa
:0401e00062040000b5
:020000040000fa
:0401e40062040000b1
:020000040000fa
:0401e80062040000ad
:020000040000fa
:0401ec0062040000a9
:020000040000fa
:0401f00062040000a5
:020000040000fa
:0401f40062040000a1
:020000040000fa
:0401f800620400009d
:020000040000fa
:0401fc006204000099
:020000040000fa
:040200006204000094
:020000040000fa
:040204006204000090
:020000040000fa
:04020800620400008c
:020000040000fa
:04020c006204000088
:020000040000fa
:040210006204000084
:020000040000fa
:040214006204000080
:020000040000fa
:04021800620400007c
:020000040000fa
:04021c006204000078
:020000040000fa
:040220006204000074
:020000040000fa
:040224006204000070
:020000040000fa
:04022800620400006c
:020000040000fa
:04022c006204000068
:020000040000fa
:040230006204000064
:020000040000fa
:040234006204000060
:020000040000fa
:04023800620400005c
:020000040000fa
:04023c006204000058
:020000040000fa
:040240006204000054
:020000040000fa
:040244006204000050
:020000040000fa
:04024800620400004c
:020000040000fa
:04024c006204000048
:020000040000fa
:040250006204000044
:020000040000fa
:040254006204000040
:020000040000fa
:04025800620400003c
:020000040000fa
:04025c006204000038
:020000040000fa
:040260006204000034
:020000040000fa
:040264006204000030
:020000040000fa
:04026800620400002c
:020000040000fa
:04026c006204000028
:020000040000fa
:040270006204000024
:020000040000fa
:040274006204000020
:020000040000fa
:04027800620400001c
:020000040000fa
:04027c006204000018
:020000040000fa
:040280006204000014
:020000040000fa
:040284006204000010
:020000040000fa
:04028800620400000c
:020000040000fa
:04028c006204000008
:020000040000fa
:040290006204000004
:020000040000fa
:040294006204000000
:020000040000fa
:0402980062040000fc
:020000040000fa
:04029c0062040000f8
:020000040000fa
:0402a00062040000f4
:020000040000fa
:0402a40062040000f0
:020000040000fa
:0402a80062040000ec
:020000040000fa
:0402ac0062040000e8
:020000040000fa
:0402b00062040000e4
:020000040000fa
:0402b40062040000e0
:020000040000fa
:0402b80062040000dc
:020000040000fa
:0402bc0062040000d8
:020000040000fa
:0402c00062040000d4
:020000040000fa
:0402c40062040000d0
:020000040000fa
:0402c80062040000cc
:020000040000fa
:0402cc0062040000c8
:020000040000fa
:0402d00062040000c4
:020000040000fa
:0402d40062040000c0
:020000040000fa
:0402d80062040000bc
:020000040000fa
:0402dc0062040000b8
:020000040000fa
:0402e00062040000b4
:020000040000fa
:0402e40062040000b0
:020000040000fa
:0402e80062040000ac
:020000040000fa
:0402ec0062040000a8
:020000040000fa
:0402f00062040000a4
:020000040000fa
:0402f40062040000a0
:020000040000fa
:0402f800620400009c
:020000040000fa
:0402fc006204000098
:020000040000fa
:040300006204000093
:020000040000fa
:04030400620400008f
:020000040000fa
:04030800620400008b
:020000040000fa
:04030c006204000087
:020000040000fa
:040310006204000083
:020000040000fa
:04031400620400007f
:020000040000fa
:04031800620400007b
:020000040000fa
:04031c000a040000cf
:020000040000fa
:040320006204000073
:020000040000fa
:04032400620400006f
:020000040000fa
:04032800620400006b
:020000040000fa
:04032c006204000067
:020000040000fa
:040330006204000063
:020000040000fa
:04033400620400005f
:020000040000fa
:10040000cf1221000eff26000e0188000000000020
:10041000000020000000e000020032000001200087
:100420002002880014000700ae0107000000e00071
:1004300003003a0020b8220001002000020037002b
:100440000000200001002000810f70000100320038
:100450000f000700000020000000e0000200320052
:100460000000020000000000e02702000000000081
:100470000040da000000fe00e01620000000e0006e
:1004800002003200002020009001880000000600d9
:10049000a1028800800478000000eb001f003700f4
:1004a000e284440054a0b4009905ba00e2844400f8
:1004b00054a0b4009906ba00e284440054a0b400e9
:1004c0000006eb00476fde00fd07b200ae018800ba
:1004d000636ce10003003a000ad801000000eb0061
:1004e0000e003700606ce10008003a00004deb00a0
:1004f0000a05e800020039003420ec000af0a000f0
:100500008b05e900f9ff3e00040037006168e10057
:10051000010032000086eb000b00070019c7ba008b
:100520001905ba000e04e00003003a000a00e000da
:10053000dbff3a0000000600fe07b200ae028800b2
:100540008a047800f5ff37000cd0a300e20f4d00bd
:100550001c00390089027800354dba000a05e80010
:10056000020039003420ec000af0a0008b05e900fd
:100570000f003200254dba000a05e80002003900dc
:100580003420ec000af0a0008b05e90008003200de
:100590000c00e0000600320015cdba000a05e800a4
:1005a000020039003420ec000af0a0008b05e900bd
:1005b0008984e80054a0b4000b00e000e2ff3a0098
:1005c000000006009902ba00055d78008b05e9007d
:1005d000f7ff3200c82ade00055d78008b05e900d0
:1005e000f3ff32000c00e000f1ff320019ddba0029
:1005f000eeff37000625040000000000242504005b
:10060000000000003600f800c028a9000000eb0040
:10061000a41507003600f800a6150700c048a90079
:10062000100020009f1507003600f800c068a900e0
:10063000200020009b1507003600f800c088a900a4
:1006400030002000971507003600f800c608a90002
:1006500070002000931507003600f800c408a900b8
:10066000b00020008f1507003600f800809fbe0004
:10067000829fbe00849fbe00869fbe000000fa00dd
:1006800050808000000001003180800020808000c8
:10069000808f500002003a002188a900180037001e
:1006a0000188a90010003700308080009040780059
:1006b0008180fb00411288000000e8003080880043
:1006c0003180800090112100808f500002003a009c
:1006d000001121003080880031808000208080005f
:1006e000808f500005003200f01180007000600023
:1006f0000000e000ecff32000100370000000000c5
:100700000080fa004f03be004f02be004f01be0042
:100710004f00be003600f900004006003600f80029
:10072000809fbe00829fbe00849fbe00869fbe0049
:100730000000fa0060808000000001000168a9004c
:100740001e00370000808000211280008140780068
:10075000014878000180800010122100808f500035
:1007600009003200008080008000e80010808000d6
:10077000808f500004003200008080000000e800fc
:10078000008088000d0037000180800010122100d9
:10079000808f500007003a001180800090112100e6
:1007a000808f5000030032009011210000808800eb
:1007b0000200370010c0b30008f0b700f01180004d
:1007c000620060000000e000deff32000080fa00fe
:1007d0004f03be004f02be004f01be004f00be00df
:1007e0003600f90000400600801f78000000fa0083
:1007f000e0118000620060000000e00001003200b3
:100800003c22a9000628a9000080fa004f007800c9
:10081000004006000000fa0017a8a9000080fa00b6
:10082000004006003600f800809fbe00829fbe0098
:10083000849fbe00869fbe000000fa000140800039
:1008400000042000008060000000e0000200320090
:100850003814070000c8a9000080fa004f03be004a
:100860004f02be004f01be004f00be003600f9002f
:10087000004006003600f800809fbe00829fbe0048
:10088000849fbe00869fbe000000fa0001408000e9
:1008900000082000008060000000e000020032003c
:1008a0002914070000e8a9000080fa004f03be00e9
:1008b0004f02be004f01be004f00be003600f900df
:1008c000004006000040da000000fe001004b10005
:1008d000070035009001b100040034007000b10041
:1008e000030035009001b10001003c00100005003c
:1008f000000005006900e100040035006d00e10022
:10090000030034000002b1000100320000000500c5
:10091000100005001004b100030035009001b10083
:1009200001003c0010000500000005008000780078
:100930001104b100030035009101b10001003c0039
:100940000050a000000006000a00fa000000e000cd
:100950003e003a0073878000a34190000304e0004a
:100960003a003a0053898000e18f510003003200c1
:10097000e28f51000e003a0009003700802320006a
:100980000000e00001003a000040da003802e20016
:100990000b0035004022ef0039e2a80008003700c4
:1009a000002620000000e00001003a000040da00cc
:1009b0006002e200020035006822ef0061e2a80058
:1009c000020078001d003700040a2000e18f51006a
:1009d0000b003a00030037000402e90002003a006d
:1009e00003003700040a20003e22ab00faff3a0061
:1009f000f4118000050037000402e9000200320013
:100a00006622ab00fcff3a00341380000410a20001
:100a100011840a00040000000400e0000900320014
:100a2000e18f510002003a002412800001003700db
:100a300064138000845878000000e9000000e000a2
:100a4000e1ff3a00000051000800370023002000b9
:100a5000b3bf9f00c0bf9f00d1bf9f00e2bf9f00f8
:100a60006a805700c60c07006fb897000080fa0034
:100a7000000006000a00fa002007980031079800dd
:100a800042079800be009000110798000000eb009c
:100a9000000f78000c003700000000002310070052
:100aa0000004a2000004e000fcff3a001e009000d9
:100ab000104078009e0090008100e8001107980027
:100ac000fa0f07001e0fe8004e0090009e0078000d
:100ad000808f5000f0ff39004e0090000080fa0037
:100ae0000000060000000500b041780031c151004f
:100af00002003a000304e000fbff3a000200fb00a2
:100b0000000006000c00fa00a0bf9f00c0bf9f00bd
:100b10006e020700b0bf9f00f0bf9f00100c2000c6
:100b2000d0bf9f0074815700efb097006c805700d2
:100b3000340007000080fa0000000600881f7800db
:100b400040898000c5010700000478000800780093
:100b500068ff07000000e000f9ff3a00e10f4400e1
:100b60000300320041898000080078005d02070020
:100b70004f04780000000600889fbe008a1f78009e
:100b800000047800814478000205780000fd2f0001
:100b900008004000e90f500002003e000004780009
:100ba00010003700080078005aff07000000e0003e
:100bb000050032000a00e00003003200080078005f
:100bc0005aff070000047800080078003fff070084
:100bd0008000780000c0eb000100e0000600320059
:100be0007805b1008984fb0000c0eb00890f540038
:100bf00001003d00084078004f0578004f04be001a
:100c000000000600f0874700889fbe008a9fbe0054
:100c10008c9fbe008e1f780001057800820478004a
:100c2000408988000000eb00c0b79f00e0b79f003c
:100c30000044eb00600137000a05e8000b86fb006a
:100c40000c0078002bff07000000e00002003200db
:100c5000baff07005501370050c2b30080cf5500de
:100c600043013a008046eb0021c0b3000d467800f6
:100c70000a00780001477800040037004ec0b30036
:100c8000010037002ec0b3000a007800ba45780092
:100c900091c6b30081cf5500a30032001c003e0076
:100ca000e6c0500081cf55007700320011003e00b1
:100cb000f7c0500081cf55002c00320006003e00e6
:100cc0000b04e000bd003200a1c2b30081cf55008b
:100cd00082003a002300370081c5b30081cf550060
:100ce0007e003a000e407800b0ef9f001100200017
:100cf0002500370041c6b30081cf55008a0032007d
:100d0000e4c0400081cf550074003a00ddff370099
:100d1000f1c6b30081cf55008700320007003e00c6
:100d2000e3c0500081cf55001000320081c0e800c0
:100d300081cf550069003a001600370051c7b30053
:100d400081cf550078003200e3c0400081cf5500cc
:100d50000a003200e5c0500081cf55005f003a0024
:100d60001c0037000c46e800c7ff3700e24f570071
:100d7000c2ff32008ec0b300c3ff37000e407800c0
:100d8000b0ef9f008000eb00c1b79f0000c1b3002f
:100d90006c0037008e407800b1ef9f000c04e0003b
:100da00069003a008984e900e4cf500005003a0068
:100db00019007800efb097006109b9000288be0001
:100dc0006100370019007800efb097000108780043
:100dd0005d00370059ff07000c04e00002003a00f4
:100de00049007800b0b79f00408980001b010700d0
:100df00080057800e18f4500020032006fb7970050
:100e0000140037000b007800e20037000e07e800fe
:100e10001a00fb00808f550002003a000a05e80026
:100e2000130037000c04e00003003a00bfb0970045
:100e30008b587800b1b79f00cfe8970001c04600fb
:100e40008e4f50000a0032004089800003010700e5
:100e5000800578000b00e800e10f50000400360028
:100e60000b007800a3fe07000000e000e7ff32005f
:100e70000c04e000ce003a000844e8003fb09700c0
:100e80000c487800ca0037000c04e00003003a0068
:100e90000844e800c9007800b1b79f006fb7970019
:100ea000bfb5970040898000ec000700e10f4000cb
:100eb000b80032000c04e00002003a000e07e8001f
:100ec000805d78008d46e9004240a900f5ff3c00b6
:100ed0000b007800b0b79f00b50037008b85fb0092
:100ee00001fd2f008b804000e98f500009003e007b
:100ef000bb000700804678008a0078000105780072
:100f00003100fb000003b100e90f5000fbff360089
:100f10005dff370040898000d0000700808f5500ba
:100f200097003a00a10037008e407800b1ef9f0093
:100f3000a0c0b300030037008e407800b1ef9f00df
:100f400080c0b300a0ef9f00fcfe07004089800036
:100f5000c200070080057800efb097008100e8002c
:100f6000e1b79f000040eb00d0e79f00d0022000d7
:100f7000808f550008003a0040898000b7000700c4
:100f800080057800efb097008100e800e1b79f008e
:100f900010c0b300d0e79f004fb19700afe89700b3
:100fa0000b007800f4fe0700e14f40000c003a000f
:100fb000418980000b0078004a0107000804e00026
:100fc00080003a0040898000b00090000000eb00f3
:100fd0000148a3007c0032000080eb007a0037005b
:100fe00000032000808f550018003a0040898000df
:100ff0009a00070081072000810f500004003a008a
:10100000cfb097000100e000070032000d0037006c
:1010100081052000810f50000a003a00cfb09700f0
:101020000100e00007003200408980008b000700cb
:10103000800578006fb097000080e800e0b79f005f
:101040000200370041898000260107006022b800b5
:10105000c8e79f00090778000404be0001003700bc
:10106000e3b79f00afe897000181fb008001eb0030
:101070000800be00cf0c07000004be004fb197006f
:10108000afe897000b007800bbfe07000080fb0074
:101090008000eb000004440081844c006fb0970096
:1010a0008001e8008d46e9000b0032004089800095
:1010b000f3b79f0069000700800578004fb19700e3
:1010c000afe897000b007800abfe0700ffb1970078
:1010d000e14f4000e2ff3a000802be004fe49700f3
:1010e0008e047800030778004fb19700afe89700af
:1010f0000b007800f4b79f0085bf9f009efe07009d
:101100007fb297008fba9700e14f400006003a0087
:10111000418980000b007800f20007006fb797004c
:101120008fba97007fb29700dfe097000104e000dc
:101130000200320060021200e0821a000c04e0009b
:101140001b003a000844e8008984e9003fe8970062
:10115000e44f500003003a00190078000488be00f4
:1011600013003700190078000408780010003700d9
:101170004089800039000700800f560008003200c7
:10118000e10f40000300320041898000d5000700d4
:101190000c0037000804e0000a003a000a0037009b
:1011a0006fb097000007e800010037006fb79700a5
:1011b0008e007800e1b79f009a4578000b04e000ac
:1011c0009dfe3a000880fb004f0778004f06be00e6
:1011d0004f05be004f04be000f01b1000000060025
:1011e00080007800010078003041780003c2b3002d
:1011f000834f5100faff3200e94f5100f8ff3200ef
:10120000edc14100834f510003003a008000780097
:1012100013c0b300050037008041eb00b4c2b30037
:10122000844f510001003a00800078000000eb007c
:10123000020037006a02b900040041003101fb00de
:101240000203b100e90f5100faff36000304e00089
:10125000010032000000ea0000000600881f78004c
:101260000004780038009000f1006000e18f500029
:1012700005003a000098a300080032009800900092
:101280000100e00005003200380090000040a0009e
:10129000300498000080eb001f0037000090a10090
:1012a00030049800180090000000e00006003400b0
:1012b0000000e90010049800980078001180fb00fd
:1012c000010ce80005003700380090000068a3001a
:1012d000edff3a000800780011000700b800900008
:1012e0000178a3000c003a00fa0f500008003a0001
:1012f000280090000000e000e3ff3200180090009a
:101300000000e80010049800180ce900deff370028
:10131000ed0f5000e3ff32004f047800000006009c
:101320000200fa00889fbe008a1f7800000478003f
:101330000000eb0010049800b80090000080eb0063
:101340000108a3003e003200201221001004e0003a
:101350000f003200ea0e2100c9fd2f008a844400ec
:10136000390090002010b20021102000810f5000a1
:1013700002003a0009007800d5090700ec84440017
:101380008a8f5400f6ff3a00201221000048eb003b
:10139000580190000200e0000e003a00120498008c
:1013a00012002000e88057004800900066fd07000a
:1013b000e10f500003003a008ff897000180fb0016
:1013c0001f003700380090000040a0003004980053
:1013d00013003700a8009000480090005afd070055
:1013e000100498000000e00003003200e10f40000c
:1013f0000d003a0003003700380090000040a000c4
:1014000002003700380090000003b3003004980059
:1014100028009000000c78000000eb0010049800f9
:101420000080eb0006003700a8009000010c780057
:101430000000e900100498001180fb00010ce80096
:101440004f0578004f04be000080fa00000006003f
:101450000000fa0068815700cfb89700600d2100a6
:10146000df0007000080fa0000000600889fbe0031
:101470000004be00050037000000fb008900780072
:10148000bd090700e10f4000040032003840780039
:101490000004e000f8ff3a000000eb004f04be003b
:1014a00000000600881f7800610d2100efff070093
:1014b00000047800610d2100a0002000ae090700a3
:1014c000080078004f0478000000060080007800d3
:1014d0003104e000feff3a000080ea000080400096
:1014e00000000600e10f40001c00320031019000b6
:1014f0001220b200e10f510015003a0021029000c5
:101500000400e0001200320011019000d1019000af
:10151000830f51001000320091017800848f510038
:1015200002003a008308e800020037000201e800e8
:10153000920098001101e90082087800b100900043
:101540000168a30005003a00004978000000060089
:101550000080eb00000006000080eb0000000600a9
:10156000889fbe008a9fbe000084fb00d1c6b300e6
:10157000814f5000200036004b0620000500090076
:101580000b84d80081057800720040004200dd0025
:101590004a042100000045000200200003f023005f
:1015a0001000be00110b07000002be00a9002000c1
:1015b000050009008985d80080057800e985450087
:1015c000c25ddd008b0545001b01be000400be00ae
:1015d000060b07000002be00050009000984d800c0
:1015e000010478004244dd00080545001a01be00f0
:1015f0000400be0018003700ea4f5000100036000b
:10160000aa002000050009000a84d800010578001e
:10161000690440004244dd0049042100088444007c
:101620000200200003f023001800be00ef0a0700ac
:101630004255dd008a8444001901be0006003700cf
:101640004244dd0040042100080440000200200064
:1016500003f023001800be00e40a07004f05be0097
:101660004f04be0000000600889fbe008a1f78005d
:10167000d1c6b3000004e00025003d000040ea00b0
:101680000004fb00814f50000e0034004206200091
:10169000050009000204d800a90020000500090087
:1016a0008900d800e9004000c208dd004a0421009a
:1016b000810045001101be0080848000918480007b
:1016c00023003700ea4f50000e003400a200200033
:1016d000050009000204d8000101780069004000fb
:1016e0004200dd0041042100008040004211dd0085
:1016f000828040001101be001000be00bb0a07003e
:101700002b0037004244dd00400421002600370052
:101710000004fb00814f50001700340042062000f7
:10172000050009000204d800a900200005000900f6
:101730008900d800e9004000c208dd000a0121004c
:10174000810045001101be00e0828000f18280002e
:10175000a60a07000002be00050009000904d8001f
:10176000010478004244dd00080545001a01be006e
:101770000400be00e1ff3700ea4f500008003400cb
:10178000a2002000050009000204d8000101780031
:10179000690040004200dd0001012100d2ff370056
:1017a0004244dd0000012100080440001800be0092
:1017b0004f0578004f04be0000000600d0019000e5
:1017c000028151004240a90003003400100178005a
:1017d000014978000208e8000100780000000600d6
:1017e000af02b000889fbe008a9fbe008c9fbe00e3
:1017f0008e1f780000077800a1af9f00f2af9f0016
:101800006055b8000000eb00c0b79f00a408370087
:10181000afa897008100e800a1af9f0051c2b300bc
:10182000814f500003003a00afa997000000eb0081
:1018300013003700be0090000000fb000168a30009
:10184000070032004fb19700800078000e0078004a
:10185000daff07000000e00005003a0090083700ba
:101860008e007800c4080700e10f40008c083200a9
:101870004fb197000201e800c2b79f008808370007
:101880008300780033417800b4c2b300844f510024
:101890001300320007003c006b425200844f51009d
:1018a0000d00320063424200844f510012003a00a2
:1018b0000d003700d4c2b300844f51000400320041
:1018c00063424200844f51000b003a000800370089
:1018d0000030a000eaff37000000a000e8ff37005a
:1018e0000010a000e6ff370000b0a000e4ff3700c2
:1018f0000020a000e2ff37000018a3000100320022
:101900000000a1000038a300010032000020a10067
:101910008201fb000303b100e98f51000e003e007d
:10192000010178008001eb0093b79f006a1ab900ab
:10193000b201fb000303b100848141008200780002
:101940001202fb000403b100e90f5200f7ff36005a
:1019500093b79f000a0037000002eb0094b79f0086
:10196000a3c2b300834f510005003a00ffaa9700bd
:1019700045017800f5af9f0092b79f008100e80015
:10198000e2c2b300914f110019003a0000e0a0003c
:10199000a0b79f00a0c2b300d14f100004003200d6
:1019a000010078008001eb0083b79f000900370039
:1019b0007faa9700c4027800f4af9f0085b79f000c
:1019c0008100e800afb197000e0037006a1ab90035
:1019d00084014100800078003001fb000203b10067
:1019e000e90f5100f9ff360083b79f00f5ff37007c
:1019f00000c0a000a0b79f000000eb0080b79f00d0
:101a0000f0ff370031407800a1af9f0072c6b300ed
:101a1000824f50003500320018003c00a3b79f00f1
:101a200031c6b300814f5000d00032000e003c00a0
:101a3000fcc05000814f50004200320006003c00c4
:101a40000004e0001b08320081c0e900814f500013
:101a5000e0003a003300370081c5b300814f5000e9
:101a6000dc003a004400370051c6b300814f5000fb
:101a70002100320026003c002100370002c7b300dd
:101a8000824f50003b0032000b003c00644151008b
:101a9000824f50001c003200a3b79f00f1c6b30074
:101aa000814f50002e003200e6c05000814f5000a0
:101ab000c8003a0012003700a3b79f0051c7b30017
:101ac000814f5000c8003200e3c04000814f5000f9
:101ad00004003200e5c05000814f5000bd003a00c4
:101ae0002d003700a0cf9f0027003700a3b79f002d
:101af000a0cf9f0017003700a0cf9f000d00370038
:101b0000a0cf9f00bc0037000340a000bdff3700fe
:101b1000a0cf9f00afb1970003a0a000a3b79f0084
:101b2000b5003700a0cf9f002fb297000450a0004f
:101b3000a4b79f00afb297000580a000a5b79f0093
:101b4000ad003700a0cf9f002fb097000050a0003d
:101b5000a0b79f00afb097000190a000a50037008c
:101b6000a0cf9f002fb197000260a000a2b79f00f6
:101b7000a1003700a3b79f00a0cf9f00afb197008f
:101b80000350a000a3b79f002fb297000470a000dd
:101b9000a4b79f0098003700a0cf9f00ffaa97002e
:101ba00045007800f5af9f00000678000000e000d7
:101bb00001003a00ac0921008c0078000000eb0025
:101bc000010037000000e800614178000204e000f5
:101bd000fcff3a00800678000fb097000000e0009c
:101be000030032008d0f50000100310080067800a4
:101bf0000004eb009fb097008d8f5000010036006d
:101c00000d8450002fb19700e804610035003a00c0
:101c1000acb79f00bdb79f000a06be00cfb59700c6
:101c2000110037003e0090000068a300070032005a
:101c30000b017800010220000e007800dffe070093
:101c40000000e00006003a00060037008e00780031
:101c500000022000c8070700e10f40000100320029
:101c60008b05e8000804e9000800e000edff3a00f9
:101c7000cbb79f000c05be002fb69700bfb69700ec
:101c80000084eb00aab79f00bbb79f001700370086
:101c90003e0090000068a300090032000c007800ac
:101ca000b000fb00000678000b0178000e00780001
:101cb000c2fe07000000e00008003a000c003700f8
:101cc0008c0078003100fb00010678008e0078005f
:101cd000a9070700e10f4000050032008b05e8006e
:101ce00003003700aab79f00bbb79f00cfb597008e
:101cf0000d0078008006e9000000e000e4ff3a00f3
:101d0000cbb79f002fb59700bfb597000900e00043
:101d100063073200cfb49700110037003e009000f7
:101d20000068a300070032000901780001022000ca
:101d30000e007800a1fe07000000e00006003a0057
:101d4000060037008e007800000220008a07070096
:101d5000e10f4000010032008904e8000804e900b6
:101d60000800e000edff3a004c073700ffa997009c
:101d700043007800f3af9f00cf80de00c809de008b
:101d8000480add004801de0002017200a2cf9f0078
:101d9000afb297000548a300080032000204e0003b
:101da00006003200e14f410004003200b2cf9f0034
:101db000c0cf9f002d00200002003700b0cf9f0051
:101dc0001d002000a0fc2f000f0040000006e800ce
:101dd00081ff3700a0cf9f00acfc2f000f0646000c
:101de0001d0020007cff3700a0cf9f00afb0970000
:101df000010cb300a1b79f00017020002fb1970024
:101e000081006100700061000100e000e104320027
:101e100002c8a300020032006300200083b79f00c5
:101e20000000e000080032007faa9700680252001c
:101e30003400be002401be00f4af9f001f0907005c
:101e40000004be0003003700ffaa97004504be004f
:101e5000f5af9f006011b8000800be006a080700d7
:101e60000000e00004003d0009f0a2002fb0970040
:101e70003000b300a0b79f000000eb00f0a79f0068
:101e80006011b8000800be00800807000000e000f4
:101e900024003200e2fc2f000f0141000800be00c8
:101ea000a20807007fa097000000e9006302b900c4
:101eb000a2002000050009000202d800f0a79f0040
:101ec0000000e00002003d000000e900f0a79f00d4
:101ed0007fa697000c40ea00e3fd07000801be0062
:101ee000c20807000005be000200200003f823001e
:101ef000450807000000e00002003d000c06e90074
:101f00000700370002002000031224000a00be0070
:101f10003f0807000000e000020035000c06e80062
:101f2000fca79f007fa697002fb197000288a3000f
:101f300007003a000298a300ae023200e40f460008
:101f4000030035008fb19700830f560065023500fe
:101f50000fb297000400e00005003200afb2970016
:101f60000598a300020032000402e90084b79f0034
:101f70000fb09700e80f50000300360080c0b30098
:101f8000a0cf9f00020037008fe09700a1cf9f00f5
:101f90006011b8000800be003c0807000000e00027
:101fa00033003200afce97000d405600aefd070063
:101fb0000001be000800be00d10707000004be00fb
:101fc000150807002f0807000001be000800be002a
:101fd0006d0707000200200003f023000c08070033
:101fe0000000e000050035000200200003f023009f
:101ff0000800be00650707000004be000800be0020
:10200000050807000d01fb008201e800c219dd0090
:10201000240a210083014200b30f5000a38f58000f
:1020200007003900d2cc2c00c3dc23000800be001e
:102030006e0807000004be000c06e8000b00370025
:102040004211dd0002014200b20f5000a28f580081
:102050000700310002002000031224000800be0027
:10206000620807000004be000c06e900fca79f0000
:1020700001a020002fb19700810061000020200006
:10208000808f500026003a008fb19700ea8f5100f0
:1020900002003400a400200084b79f000800be00a6
:1020a000dd070700070037008fb297008502e900bf
:1020b00085b79f00a2002000030020000c00be0096
:1020c000a90807000006be00e00f5000e08f58008e
:1020d00006003200a200200003002000b208070022
:1020e000e00f5000e08f5800efff32002fc897003c
:1020f0008000fb000fb19700810f510008003d00e8
:102100000240500058fd07000001be000800be005c
:102110007b0707000004be008fe19700a3cf9f005c
:102120001fb29700650052008fb297000500500063
:1021300090b79f000500e00003003a002fb0970021
:1021400000b8a300030032009fb097008100e900af
:1021500091b79f002fb19700630061000300320028
:102160009fb197008301e90093b79f002fb29700ba
:102170000428a300530032003e0090006101620079
:102180000418a300180032000068a3000a003200ff
:10219000b10220000200e000010032008180e8006e
:1021a0004fb197000e00780084fd07000000e000aa
:1021b00009003a003a003700b00220000200e000b7
:1021c000010032000080e8008e0078006a060700f7
:1021d000e10f400032003200cfb297008502e800e4
:1021e000050678002f0037000200e0002c003200c6
:1021f0000068a300070032004fb1970001022000e1
:102200000e0078006dfd07000000e00006003a00b7
:10221000230037008e0078000002200056060700d9
:10222000e10f40001e0032004fb097000000e800b0
:10223000000678001b0037003e0090000068a300f5
:102240000b0032000c017800010320000e00780022
:10225000f4b79f0085bf9f0058fd07007fb297002d
:102260008fba97000000e0000a003a000a00370029
:102270008e00780000032000f4b79f0085bf9f0008
:102280003d0607007fb297008fba9700e10f40002c
:10229000010032000c06e8008904e9000300370061
:1022a0004fb697000802be009fb497000900e000f7
:1022b000e1ff3c0099b79f00ccb79f000404be002b
:1022c0004f003700afb097000138a3001c003a0060
:1022d0004fb69700d8af9f00e9af9f009fb497001b
:1022e000110037003e0090000068a3000700320094
:1022f0000c017800010220000e0078002ffd07007d
:102300000000e00006003a00060037008e0078006a
:102310000002200018060700e10f40000100320013
:102320000c06e8008904e9000900e000edff3c002c
:1023300099b79f00ccb79f005fac9700efac9700b8
:102340003e009000afb19700618161000318a300c7
:10235000180032000068a3000a003200b102200019
:102360000200e000010032008180e8004fb19700d8
:102370000e00780011fd07000000e00009003a009f
:102380001f003700b00220000200e0000100320010
:102390000080e8008e007800f7050700e10f40009c
:1023a000170032004fb297000402e800c4b79f0044
:1023b000130037000200e000110032000068a300a3
:1023c000070032004fb19700010220000e00780094
:1023d000fafc07000000e00006003a0008003700a1
:1023e0008e00780000022000e3050700e10f4000a6
:1023f00003003200cfb297008502e800c5b79f0006
:102400000800be00040707000006be003e01900061
:10241000200a2100afc997008300fb000268a300d7
:102420000d003200c208dd00010040001001be00b6
:102430000c00be00cc070700010320008080400094
:102440004fb197000e007800dcfc07000000e000b0
:102450000d003a000f003700c208dd000100400007
:102460001001be000c00be00bf07070002032000e1
:10247000000141008e00780002007800be050700d0
:10248000e10f4000030032004fb297000402e80061
:10249000c4b79f00afca97000500fb004200dd00f3
:1024a000210a2100008040001001be000c00be0087
:1024b000bd0707000006be000fb097000000e00057
:1024c00003003a00afb0970001b8a30066003200e5
:1024d0003e0090000068a300070032004fb1970053
:1024e000e10220000e007800b4fc07000000e000cc
:1024f00006003a00080037008e007800e002200055
:102500009d050700e10f4000030032004fb1970026
:102510000201e800c2b79f002fcc9700cfb497000c
:1025200033003700afb197000398a30008003200d2
:10253000e00f5600e08f5e0005003a00c9b79f002b
:102540000042eb00a4cf9f000004eb0043003700e3
:102550003e019000200a21008100fb000268a300d8
:102560000d003200c208dd00010040001001be0075
:102570000c00be007c0707000103200080804000a3
:10258000090178000e0078008cfc07000000e000d4
:102590000d003a000d003700c208dd0001004000c8
:1025a0001001be000c00be006f07070002032000f0
:1025b000000141008e007800020078006e050700df
:1025c000e10f4000010032008904e800afca970023
:1025d0000500fb004200dd00210a210000804000d0
:1025e0001001be000c00be006f0707000006be0011
:1025f0002fc897008040e900a1cf9f000004e000b1
:10260000c8ff3a00c9b79f000804fb000fb097004d
:1026100008045000110037003e0090000068a3003d
:102620000700320009017800010320000e00780045
:1026300062fc07000000e00006003a0006003700d8
:102640008e007800000320004b050700e10f4000da
:10265000010032008904e8000804e9000800e000f5
:10266000edff3a00c9b79f003e009000afb0970061
:102670000158a300120032000068a30007003200d6
:102680004fb19700510420000e0078004bfc07006a
:102690000000e00006003a001a0037008e007800c3
:1026a0005004200034050700e10f400015003200ff
:1026b0004fb197000201e800c2b79f001100370038
:1026c0000068a300070032004fb1970051062000b8
:1026d0000e00780039fc07000000e00006003a0018
:1026e000080037008e007800500620002205070001
:1026f000e10f400003003200cfb197008301e800f2
:10270000c3b79f00ffa097003e0090000100e000cb
:1027100014003d008100ea00f1a79f000068a300bb
:10272000070032004fb19700d10220000e00780060
:1027300022fc07000000e00006003a001a00370003
:102740008e007800d00220000b050700e10f40004a
:10275000150032004fb297000402e800c4b79f0092
:10276000110037000068a300070032004fb1970046
:10277000b10220000e00780010fc07000000e0000d
:1027800006003a00080037008e007800b0022000f2
:10279000f9040700e10f400003003200cfb29700b8
:1027a0008502e800c5b79f00be0090007fa097009b
:1027b0000168a3000b003200a20020000500090000
:1027c0000200d80001032000808040004fb1970034
:1027d0000e007800f9fb07000000e00009003a0055
:1027e0000b003700a2002000050009000200d800fd
:1027f0000003b0008e007800df040700e10f400006
:10280000030032004fb097000000e800c0b79f00ff
:10281000be0090007fa097000168a3000a0032006c
:10282000a2002000050009000200d8000103b0004a
:102830004fb197000e007800e0fb07000000e000b9
:102840000a003a000c003700a20020000500090031
:102850000200d80000032000010040008e00780034
:10286000c5040700e10f400003003200cfb097001d
:102870008100e800c1b79f002fb197000238a30084
:10288000870432009fb197000300e0008404340005
:1028900003047800cfb497003e0090000068a300c6
:1028a0000700320009017800010220000e007800c4
:1028b000c2fb07000000e00006003a0006003700f7
:1028c0008e00780000022000ab040700e10f4000fa
:1028d000010032008904e8000804e900eeff3a0034
:1028e0006e0437000c00e00004003d000c86ea0096
:1028f0000fb297000c02420084b79f000800be0090
:10290000c5050700d0af9f00e1af9f00e10921009e
:102910000040eb0007003700e48040005faa97000a
:10292000efaa9700b10f5200a18f5a00030039009f
:102930000040e800ea4f5000f7ff3a000000fb00bb
:102940008fb297008082520085b79f00ec8f5200b3
:1029500006003c000540780001fb07000001be00b6
:102960000800be00090507000004be000fe0970044
:102970003dfb07000006be005fa89700efa8970088
:10298000c00507000001be000800be00fe040700ed
:102990000001be000c00be00140607009e050700e3
:1029a0000006be0008003700a2002000030020003f
:1029b0000c00be006c0607000006be000fb09700ba
:1029c0000000e90080b79f008fb097000100e00091
:1029d00011003200a2002000030020000c00be0005
:1029e00071060700e00f5000e08f5800eeff320044
:1029f000090037000fb19700ec0f510006003c00b2
:102a000002407800d6fa07000001be000800be00b0
:102a1000de0407000004be007fa69700e90f560001
:102a20000c003c006011b8000800be0097050700cc
:102a30000000e0001b0032000800be007605070021
:102a4000e00f5000e08f580016003a00e10f5600ea
:102a500014003400f2052700930824000a00be0089
:102a6000690507000000e00002003d00690656000d
:102a70000100370068065600fca79f006fc897004a
:102a8000f9fa07000005be000001be000800be0004
:102a90001b050700600507000006be006044b80083
:102aa0000a0037000800be005b0507000006be00f4
:102ab000740507000001be000800be00b204070054
:102ac0000004be000000eb00f0a79f00210a2100d7
:102ad00010c0b30005003700e4804000b10f56007d
:102ae000a18f5e00030039000040e800ea4f50006b
:102af000f9ff3a00a0cf9f00ffa097009fb1970079
:102b0000818051000fb29700848050000000fb00cc
:102b10000080500090b79f0000802000afb2970067
:102b200000806200d0af9f0002003a000400e00085
:102b3000030032001fb097000000e90090b79f002b
:102b4000afb0970063806000030032001fb19700b0
:102b50000201e90092b79f00afb197000328a300dc
:102b60005e003200618161000318a3001900320089
:102b70003e0090000068a3000a003200b10220006d
:102b80000200e000010032008180e8004fb19700b0
:102b90000e00780009fb07000000e00009003a0081
:102ba00043003700b00220000200e00001003200c4
:102bb0000080e8008e007800ef030700e10f40007e
:102bc0003b0032004fb297000402e800c4b79f00f8
:102bd000370037000200e000350032003e00900070
:102be0000068a300070032004fb1970001022000e7
:102bf0000e007800f1fa07000000e00006003a003d
:102c00002b0037008e00780000022000da03070056
:102c1000e10f400026003200cfb297008502e800a5
:102c2000c5b79f00220037003e0090000068a30057
:102c30000f0032000d017800010320000e00780023
:102c4000f4b79f0085bf9f00d6b79f00e7b79f00ee
:102c5000dafa07007fb297008fba97005fb3970048
:102c6000efb397000000e0000e003a000e003700be
:102c70008e00780000032000f4b79f0085bf9f00fe
:102c8000d6b79f00e7b79f00bb0307007fb297004e
:102c90008fba97005fb39700efb39700e10f400042
:102ca000010032008d06e8008904e90004003700c5
:102cb0000802be009fb497000c03be00cfb6970079
:102cc0000900e000d8ff3c0099b79f00cdb79f00f6
:102cd0000404be000606be007c0037002fb097003b
:102ce0000038a30020003a00b8af9f00c9af9f0092
:102cf0009fb497008caf9f009daf9f00cfb6970009
:102d0000110037003e0090000068a3000700320069
:102d10000d017800010220000e007800a7fa0700dc
:102d20000000e00006003a00060037008e00780040
:102d30000002200090030700e10f40000100320074
:102d40008d06e8008904e9000900e000edff3c0081
:102d500099b79f00cdb79f003fac9700cfac9700cd
:102d60000fae97009fae9700afb2970061816200ef
:102d70000518a300190032003e0090000068a3006f
:102d80000a003200b10220000200e000010032001f
:102d90008180e8004fb197000e00780087fa0700a5
:102da0000000e00009003a0048003700b0022000af
:102db0000200e000010032000080e8008e00780090
:102dc0006d030700e10f4000400032004fb0970054
:102dd0000000e800c0b79f003c0037000200e000a0
:102de0003a0032003e0090000068a3000700320065
:102df0004fb19700010220000e0078006ffa070023
:102e00000000e00006003a00300037008e00780035
:102e10000002200058030700e10f40002b003200a1
:102e2000cfb097008100e800c1b79f0027003700ae
:102e30003e019000210a21000000fb000268a3006f
:102e4000100032004200dd00008040001001be0092
:102e50000c00be0044050700a20020000300200073
:102e60005105070001032000808040004fb197000a
:102e70000e00780051fa07000000e00010003a0050
:102e8000120037004200dd00008040001001be004b
:102e90000c00be0034050700a20020000300200043
:102ea0004105070002032000000141008e00780068
:102eb0000200780030030700e10f400003003200f9
:102ec0004fb197000201e800c2b79f00afc897005a
:102ed0000140e900a0cf9f000104e000d4ff3a00c8
:102ee0000806be00cfb49700130037003e009000e4
:102ef0000068a300070032000901780001032000e8
:102f00000e0078002dfa07000000e00006003a00ed
:102f1000060037008e00780000032000160307002b
:102f2000e10f4000010032008904e8007fa0970013
:102f30000000e900f0a79f007fa097000000e000dc
:102f4000eaff3c00c9b79f000c04be008fb1970098
:102f5000e88f51000300340080c0b300a0cf9f0071
:102f6000020037000fe29700a4cf9f002fc8970000
:102f70008000fb008fb297008180520081b79f00d4
:102f80000004e00003003a005fa897000000e000a2
:102f9000120032003e0090000068a30007003200db
:102fa0004fb19700e10220000e00780003fa0700fd
:102fb0000000e00006003a00080037008e007800ac
:102fc000e0022000ec020700e10f400003003200a5
:102fd000cfb097008100e800c1b79f002fc89700cd
:102fe000a1f907000001be000800be007f04070031
:102ff000090407000006be004fb497002e003700fa
:103000003e019000200a21008100fb000268a3001d
:1030100010003200c208dd00010040001001be00b7
:103020000c00be00d0040700a20020000300200016
:10303000dd040700010320008080400008017800c3
:103040000e007800ddf907000000e00010003a00f3
:1030500010003700c208dd00010040001001be0072
:103060000c00be00c0040700a200200003002000e6
:10307000cd04070002032000000141008e0078000b
:1030800002007800bc020700e10f4000010032009e
:103090000804e8002fc997000200fb004200dd0091
:1030a000210a2100008040001001be000c00be007b
:1030b000bd0407000006be002fc897008040e9004d
:1030c000a1cf9f000004e000cdff3a00c8b79f00e9
:1030d0000fb49700cfb49700110037003e00900066
:1030e0000068a300070032000901780001032000f6
:1030f0000e007800b1f907000000e00006003a0079
:10310000060037008e007800000320009a020700b6
:10311000e10f4000010032008904e8000804e900e2
:103120000800e000edff3a00c9b79f00afb197007b
:103130000338a3005a0232001fb297000400e000d7
:1031400057023400040478003e0090000068a30099
:103150000700320009017800010220000e0078000b
:1031600096f907000000e00006003a00060037006c
:103170008e007800000220007f020700e10f40006f
:10318000010032008904e8000804e900eeff3a007b
:1031900042023700afb09700010cb20013003a00b2
:1031a0000000e00004003200ffaa97004506be00c0
:1031b000f5af9f00040037007fa897004006780015
:1031c000f0af9f00cfe6de00e00f5600e08f5e001c
:1031d00010003d00afb097003100b300a1b79f00d1
:1031e00060061600e0861e000a0037000000e000be
:1031f000040032007fa997004206be00f2af9f0094
:1032000004003700ffa9970043067800f3af9f0042
:103210008006eb000fb297000400e00006003a00c1
:103220000c80760000f0a7000000ea000000e90032
:103230004f00de0080b79f00afb29700050cb200d0
:10324000b5af9f0000042000808f520023003200a1
:1032500003003c000500e000080032002d003700ac
:1032600000082000bfa89700808f50000d0032009a
:10327000000c2000808f500026003a00210a210017
:1032800010c0b300e4804000b10f5600a18f5e0073
:103290001f0039000040e800ea4f5000f9ff3a00f3
:1032a0001b00370010c0b300020120000300200003
:1032b000820f5600838f5e0015003900441add002e
:1032c000cc11de00830172004411dd000040e800f3
:1032d000e84f5000f6ff3a000d00370010c0b30071
:1032e0008200200003002000820f5600838f5e00c2
:1032f00007003900c31add00cd11de0083817200a2
:103300004311dd000040e800eb4f5000f6ff3a00ab
:10331000a0cf9f00afc897000100fb000fb197003e
:10332000820f500002003d00a2cf9f000400370032
:103330008fb19700808f510001003d0080b79f0042
:103340001fb297000400e00005003200afb2970002
:1033500063806200020032000402e90094b79f001b
:103360002fb0970000e8a300090032009fb097003b
:103370000fb19700828f500003003400828050000c
:1033800091b79f00020037008001eb0093b79f00c8
:10339000418c20002fb29700810062000084200041
:1033a000808f500006003a009fb297000500e000b1
:1033b000110032008502e90095b79f000e0037002a
:1033c000018c20002fb09700810060000088200051
:1033d000808f500008003a009fb09700e28f5000a5
:1033e000030034008180e90091b79f00020037009c
:1033f0000001eb0092b79f00afc997000300fb00ec
:103400000002eb00d4af9f009fb29700808f520064
:103410000200340000805200d0af9f002fb0970010
:103420000028a3007d003200610160000018a300a5
:10343000190032003e0090000068a3000a0032002c
:10344000b10220000200e000010032008180e800ab
:103450004fb197000e007800d8f807000000e00098
:1034600009003a0053003700b00220000200e000db
:10347000010032000080e8008e007800be010700e5
:10348000e10f40004b003200cfb097008100e80010
:10349000c1b79f00470037000200e0001300320070
:1034a0003e0090000068a300070032004fb1970073
:1034b000010220000e007800c0f807000000e000c4
:1034c00006003a003b0037008e0078000002200022
:1034d000a9010700e10f4000360032004fb197000c
:1034e0000201e800c2b79f0032003700018c2000c3
:1034f000afb197008180610000882000808f50006c
:103500002c003a003e0090000068a3000700320043
:103510004fb19700010320000e007800a7f80700c4
:103520000000e00006003a00080037008e00780036
:103530000003200090010700e10f4000030032006b
:103540004fb297000402e800c4b79f003e0090000d
:103550002fb197000202b2000068a3000a003200f7
:10356000810720000200e0000100320081052000f8
:103570004fb197000e00780090f807000000e000bf
:1035800009003a000b003700800720000200e0002d
:1035900001003200800520008e00780076010700cf
:1035a000e10f400003003200cfb297008502e8002f
:1035b000c5b79f005fa897000000e000ac00320094
:1035c00000047800cfb497003e0090000068a3008c
:1035d0000700320009017800010320000e00780086
:1035e00076f807000000e00006003a000600370009
:1035f0008e007800000320005f010700e10f40000b
:10360000010032008904e8000804e900eeff3a00f6
:10361000d8af9f00c9b79f0095003700dfa897007b
:103620000100e000190032002fb197000238a3001a
:1036300016003a0001047800cfb497003e009000d5
:103640000068a30007003200090178000102200091
:103650000e00780059f807000000e00006003a006c
:10366000060037008e0078000002200042010700ab
:10367000e10f4000010032008904e8000804e9007d
:10368000eeff3a00d8af9f00c9b79f00afb19700d7
:10369000618161000318a300190032003e00900010
:1036a0000068a3000a003200b10220000200e0001e
:1036b000010032008180e8004fb197000e007800d1
:1036c0003ef807000000e00009003a002000370043
:1036d000b00220000200e000010032000080e8009b
:1036e0008e00780024010700e10f4000180032002e
:1036f0004fb297000402e800c4b79f0014003700df
:103700000200e000120032003e0090000068a300ba
:10371000070032004fb19700010220000e00780030
:1037200026f807000000e00006003a000800370015
:103730008e007800000220000f010700e10f40001a
:1037400003003200cfb297008502e800c5b79f00a2
:10375000008c2000afb09700008060000184200042
:10376000810f500013003a003e0090000068a30053
:10377000070032004fb19700010320000e007800cf
:103780000ef807000000e00006003a00380037009d
:103790008e00780000032000f7000700e10f4000d2
:1037a000330032004fb197000201e800c2b79f001a
:1037b0002f00370001882000810f50002c003a00b4
:1037c0003e0090000068a300070032004fb1970050
:1037d000010320000e007800f8f707000000e00069
:1037e00006003a00080037008e0078000003200031
:1037f000e1000700e10f400003003200cfb1970065
:103800008301e800c3b79f003e0090002fb19700ee
:103810000202b2000068a3000a0032008107200003
:103820000200e00001003200810520004fb1970046
:103830000e007800e1f707000000e00009003a0000
:103840000b003700800720000200e000010032007a
:10385000800520008e007800c7000700e10f4000bf
:10386000030032004fb297000402e800c4b79f0083
:103870008fb297000502e9006320b90000017800cb
:1038800092b79f004222dd00200a21000002420080
:103890008aaf9f009baf9f0004047800bfac9700e5
:1038a0005f0037008fb097008100e90081b79f006b
:1038b00000042000808f54003800320003003c00d8
:1038c0000900e000070032003e0037000008200039
:1038d000808f540020003200000c2000808f5400a4
:1038e00038003a002fb197000200e00003003500d5
:1038f000afb197000348a3000c0032001805be00ca
:103900000a01be000c00be0097020700a0cf9f0076
:103910000000fb00cf80de000a01be00a502070008
:103920000006560081865e00070037001801780007
:10393000050009000286d800a20020000500090049
:103940000280d800a1cf9f002fca97000443b00087
:10395000a4cf9f001b00370090082100afb2970052
:103960000558a3000100320080072100210a210030
:10397000810054000c01be008100e9000300330007
:103980008301d1000281d300fbff37006f0161008a
:1039900060417900a2cf9f000a0037000c00be00f2
:1039a0001fb197000201e900030033008100d1003c
:1039b0000080d300fbff3700674060000043b00089
:1039c000a0cf9f00be009000afc997000300fb008e
:1039d0000168a300070032004fb197008000780013
:1039e0000e00780075f707000000e00005003a00bf
:1039f000070037008e0078005f000700e10f4000ed
:103a0000030032004fb297000402e800c4b79f00e1
:103a10009fb29700e382520095b79f006404540060
:103a20000fb097000000e0009eff3a000fad970036
:103a30009fad9700afb097000138a3001800320087
:103a40005fa997000200e00015003400020478002e
:103a5000cfb497003e0090000068a300070032003a
:103a600009017800010220000e00780053f70700da
:103a70000000e00006003a00060037008e007800e3
:103a8000000220003c000700e10f4000010032006e
:103a90008904e8000804e900eeff3a00c9b79f0076
:103aa000afa9970013407800a0cf9f000004e0006a
:103ab00057f73a004fb097004f0778004f06be0007
:103ac0004f05be004f04be00af02b100000006006b
:103ad000881f780000047800b8009000010078008a
:103ae0001020b200e10f500005003a000000eb008a
:103af0001004980028009000000c7800180037008f
:103b00002120b2000000eb0022202000828f500014
:103b100017003a00a80090000100e00014003200f5
:103b2000180190000200e0001100320048009000ef
:103b3000d0f3070098009000810f5000030032007e
:103b4000380090000003b300300498000000eb0040
:103b50001004980028009000000c7800b800900035
:103b60000000eb000158a300010032000080eb00d0
:103b70004f04780000000600889fbe000104780012
:103b8000b80090008084eb000118a3003a003200d6
:103b9000180190000198a30002003a000200e00022
:103ba00035003a000190a0003104980080047800ac
:103bb000f90fb2000200e00002003a002800900075
:103bc000000c7800ea8f540005003a000178a30049
:103bd00003003a0088007800d0002000e6ff0700cc
:103be00018009000d8009000810f50000b003200a8
:103bf0000000e800100498001800780009487800d8
:103c0000000ce80011c0b300201221000148780028
:103c1000ea8f540018003a00050037008800780049
:103c20000940780017000700800478001200370070
:103c3000380090000088a3000f00320018019000a7
:103c4000a8009000480090008af3070098009000b8
:103c5000810f500004003200380090000003b300d0
:103c6000300498008084eb000000eb001004980002
:103c700028009000000c7800090078004f04be0076
:103c8000000006000200fa00889fbe00a0ff9f000f
:103c900001047800380090000068a30033003a0067
:103ca000e200600005003a000003b3003004980011
:103cb000110498000080eb002e003700d80490001b
:103cc0000900e00006003a0012002000e6805700dc
:103cd0004800900067f3070019049800230037009c
:103ce000a80090000100e00008003a0051122100f5
:103cf00021049800010c7800210020005104980054
:103d0000110498000030a0003004980018019000c1
:103d1000a80090004800900056f30700280090008b
:103d20008080eb0011049800aff8970001487800fc
:103d3000000ce8002ff89700ea4f50000b003a0003
:103d4000380090000088a30008003200180190009d
:103d5000a80090004800900046f307000000eb0028
:103d600010049800a8009000010c7800aff89700ac
:103d70000100fb004f04be000080fa0000000600b6
:103d800000c0da000000060003f0a200889fbe0019
:103d90008a9fbe008c1f7800fc00070003013300df
:103da0006450e1004f0032006420e1005200320014
:103db00003826c0007003b000905d0000306d00019
:103dc000820f54000c065d00020039000200320030
:103dd00089017800030678008582550004003d00c3
:103de0000003fd008103fd008502ea008b8542008f
:103df000840f720002003b0060001000e080180099
:103e00006011b8000005eb007a28e1000a003900d3
:103e100006007800c75ddd00f707b20087807500f7
:103e20002d003700828171000a0178006105600071
:103e30008180d1000080d3008502e900f9ff3b00ba
:103e4000060440008784480002003b006004140020
:103e5000e0841c000988a300070032008a817100f9
:103e600082817100610164008904d1000884d3005b
:103e70008b05e800170037000978a30013003a000b
:103e80000b00e000130034008b05e9000804440037
:103e900089844c000a4474000978a3000d003a009c
:103ea0000b00e000070034008b05e9000804440023
:103eb00089844c0001003a000b0020000978a3001f
:103ec000f7ff32000001eb00020037008281710031
:103ed0000a0178006f0007000cf0a70001f0a000b5
:103ee000bb0037006420e10002003a00838f6c00c1
:103ef000bb0033000801be000200be00b400370062
:103f0000889fbe008a9fbe008c1f78009f0007001c
:103f1000a600330003866c006450e1002e003200de
:103f20006420e100330032006150e1002f003200d4
:103f30006120e1003100320085855500eb07b000bb
:103f40000900200008042000050037000804440090
:103f500089844c000a0031000603430087834b002c
:103f60000001530081815b00f8ff33000203be00b3
:103f70000800a0000804440089844c00f6ff3900c2
:103f8000c639dd00830173000100320013002000f8
:103f90008904d1000884d3000998a30005003200e9
:103fa0000800a7000300a0008904d1000884d30002
:103fb0008b05e8008904d1000884d3000001eb00e0
:103fc0000281d2003300070001f0a1000cf0a7002d
:103fd00001f0a0007e0037006420e1008000320084
:103fe0000801be000200be00f7ff37006120e100bb
:103ff0007b0032006000b800f3ff370000002000b3
:1040000001f82700f0ff3700140020003c013700c2
:10401000f4ff2f003a0137000001be004600070000
:104020000470a70003f0a10003f8a30013003a00f6
:104030006509b10010003200090035006928e1006f
:1040400002003500010028000000050000004000cb
:10405000818048008502e900fcff3a00000006006c
:10406000f88f4200050035008100d1000080d300a8
:104070008502e800fcff3a00000006008000eb002b
:10408000000005006011b80038013700040020006e
:104090001b01370081002000618055000b003d00ae
:1040a0000b00200061fe2f000100e1001d00340024
:1040b00082817100610164008904d1000884d30009
:1040c0000000e800faff3a0071002000610064007f
:1040d0000300700002006000090032006104440027
:1040e000e0844c000988a500050032008b05e8003b
:1040f0006808e10002003a008904d1000884d30076
:10410000f20f20000258e10005003d00c75ddd0010
:10411000f907b200898075000800780000000600e9
:104120000bf827008b00780000000500a7000700af
:104130000509780000000600c70ade00f107b2009a
:10414000f50fb20008003200e1cf42000200320059
:104150000170a00024000500810f700001003200f2
:104160000408050044000500810f700002003a00b9
:10417000140005008502e9000000400081c04800ed
:10418000fcff3b000170a000240005000004be00fd
:10419000e9ff07000003be000405be000200be00e8
:1041a000e5ff0700844f7500000006000200be0016
:1041b0006450e100050036006420e1000200360092
:1041c0000968a30001003a000800be000160a000d9
:1041d0004f0678004f05be004f04be0000000600e9
:1041e000f0ff2f00f1ff2700f9ff3700889fbe0086
:1041f0008a9fbe008c1f7800e4ff0700ebff3300ae
:1042000003866c006450e100240032006420e10069
:10421000270032006150e100220032006120e100fd
:10422000210032008b854200eb07b1000134b80059
:10423000003ab8000804420089844a00013ab800f4
:104240000030b8008880400009014a0004003300b3
:104250000000400081804800020149008b05e90010
:10426000c909dd0083017000010032001300200045
:10427000c814de004814dd004709de001200b20059
:10428000c808de000884700082ff070001f0a1006a
:104290000cf0a70001f0a000cdff37006120e10085
:1042a000cfff32000801be000200be00f7ff37005a
:1042b0006150e100fcff3a00c9ff37001400fa002a
:1042c000889fbe008a9fbe008c9fbe000005be0076
:1042d0000206be00680047000c90be000a90be00b7
:1042e000470007006400e1001a00320016003e009b
:1042f0006100e1001a0032006e049000fe0490009c
:104300000e0b90009e0b90006011b8009e0590006f
:104310000b38b100d5012000828171006101640079
:104320008703d1000683d3008984d3000884d30097
:104330008502e900f8ff3a0056ff07000df0a700dc
:1043400001f0a00069003700f1ff2700f0ff2f0007
:104350006600370001f8270000002000f7ff370053
:104360006000b800f5ff37006022b80006022000a8
:104370000000d0008180d2000482d2008582d20069
:104380000000a0000202520083825a0003003100a4
:104390000202420083824a000000a1000603e900f5
:1043a000f3ff3a0000000600efff07000400be0024
:1043b00000000600020ab900001bb9000200b800a4
:1043c0008100420081004300000006000003be009f
:1043d00059ff07006220e100020032000600be0023
:1043e00005000500e507b100f107b20004f0230065
:1043f0008480700007f0a70001f0a00024000500f1
:10440000800078005002be005003be004439de0038
:10441000f700b200f37f20000301610009003200c1
:104420000218e10016003a00850172008301730052
:10443000838173000008200015003a00400020002e
:1044400013003700850172008301730083817300bc
:1044500005003a0004a8be0006a8be001000200017
:104460000b0037000201e9000402420085824a0085
:1044700006034b0087834b000748a300f9ff320077
:104480000740a00004a8be0006a8be00200020002f
:104490008000980092009800000006006804470021
:1044a0000294be000094be00fc0447008694be0047
:1044b0008494be0009007800d1ff0700080078004e
:1044c000cfff070099007800814f70000b003b0080
:1044d0000800be00540007004f00b1000300370081
:1044e000f3ff2700f2ff2f006110b9004f06be0056
:1044f0004f05be004f04be000080fa000000060019
:10450000889fbe008a9fbe00841f78001fff07009f
:104510004f00780011003300f0ff2f00838f6c00f4
:1045200006003b00040565000a00a70008003700ec
:1045300009f0a6001000200008003700820f540088
:10454000838f5c00030039001000200001003e0052
:104550000000200009f0a7000000ea004f05be009f
:104560004f04be000000e00000000600889fbe006f
:104570008a9fbe00008270000402710004827100f4
:10458000260032000004be000200be006011b80028
:104590006b092000950220000182cf000a0039003b
:1045a0000541b1000082cf00070039000541b1008c
:1045b0000982cf00040039000541b1000882cf0014
:1045c000010039000541b1000542520012003200dd
:1045d0000a003b0082817100610164008100d1000a
:1045e0000080d3008984d3000884d3008b05e800c1
:1045f0000442e800f7ff3a000700370008044400cf
:1046000089844c0000004800818048008b05e90047
:104610000442e900f9ff3a009efe07004f05be0084
:104620004f04be0000000600e48240001078a300a2
:1046300007003200640240001178a3003400be007d
:104640001401be00040032000330a7000000060081
:104650003500be001501be000330a00000000600ba
:020000040000fa
:104660006865000079200000776100006464000044
:1046700075700000200d0000006500006e740000e1
:1046800065720000200d0000006c000065640000f1
:104690006d610000676500006e740000610000003d
:1046a0004c45000044200000736800006f75000056
:1046b0006c64000020620000652000006d61000055
:1046c000676500006e740000610d0000006c000062
:1046d00065640000776800006974000065000000f0
:1046e0004c45000044200000736800006f75000016
:1046f0006c64000020620000652000007768000004
:1047000069740000650d0000006c00006564000025
:10471000626c0000616300006b0000004c4500000b
:1047200044200000736800006f7500006c64000096
:104730002062000065200000626c000061630000e0
:104740006b0d0000006c00006564000079650000de
:104750006c6c00006f770000004c000045440000c6
:1047600020730000686f0000756c0000642000007a
:104770006265000020790000656c00006c6f00002d
:10478000770d0000006c0000656400006379000094
:10479000616e0000004c00004544000020730000e2
:1047a000686f0000756c0000642000006265000006
:1047b00020630000796100006e0d0000006c0000b5
:1047c0006564000072650000640000004c45000054
:1047d00044200000736800006f7500006c640000e6
:1047e000206200006520000072650000640d00007a
:1047f000006c000065640000626c000075650000dc
:10480000004c00004544000020730000686f000069
:10481000756c0000642000006265000020620000ea
:104820006c750000650d0000006c00006564000000
:1048300067720000656500006e0000004c450000d6
:1048400044200000736800006f7500006c64000075
:1048500020620000652000006772000065650000ae
:104860006e0d00000025000073200000256400008c
:10487000005900006f7500002776000065200000d9
:10488000736500006e740000206300006f6d00000f
:104890006d6100006e6400002025000073000000c0
:1048a0002077000069740000682000007661000035
:1048b0006c75000065200000256400000d0a0000f2
:1048c000000d00000025000063200000004a0000e9
:1048d0007573000074200000676f000074200000f2
:1048e00025640000200d00000a000000476f000052
:1048f00074200000616e00002065000076650000f5
:104900006e74000020610000742000002564000027
:10491000200d00000a000000534300004350000037
:1049200031200000436100006c6c000062610000f7
:0c493000636b0000212000000d0000005f
:020000040000fa
:10493c000000fa002188a9002168a90000082000c5
:10494c00c01188003a22ef003c22ef002002200028
:10495c00f011880090012000001288004222ef0024
:10496c004c22ef004e22ef005022ef005222ef00bb
:10497c005422ef005622ef005822ef005a22ef008b
:10498c005c22ef0000112100308088000011210012
:10499c002080880090112100108088009011210047
:1049ac00008088000870ef006050220008000700ab
:1049bc0040522200150007002168a80039e2a80027
:1049cc0038a2a8003882a8000080fa000000060077
:1049dc000200fa00000f78001e0078000000e000d2
:1049ec0003003a006050220050808800020037001b
:1049fc001e007800508088000080fa00000006003d
:104a0c000000fa000080fa00000006000200fa0024
:104a1c00000f78001e0078000000e00003003a0050
:104a2c004052220060808800020037001e0078008f
:104a3c00608088000080fa00000006000000fa0088
:104a4c000080fa00000006000200fa000040eb00b3
:104a5c00004f780000000000118080000080800072
:104a6c00808f5000fcff320010808000104f7800c7
:104a7c00108080000000e800108088001180800009
:104a8c0020122100808f500002003a00901121006a
:104a9c00108088001e4078000080fa00000006009c
:104aac000200fa00004f7800000000001c00070014
:104abc000004a2000004e000fcff3a00208080000b
:104acc001e487800208080000000e80020808800cc
:104adc002180800090112100808f500002003a004c
:104aec0000112100208088002188a8000080fa0095
:104afc00000006000000fa00118080000080800099
:104b0c000080680000f0a7000000ea000000ea0046
:104b1c004f00de00004078000080fa000000060024
:104b2c000400fa0031808000110798002180800079
:104b3c001e009000808f5000060031009e009000f7
:104b4c0020808000008050000000e900000f7800f9
:104b5c00050037009e0090002080800000805000ef
:104b6c0068004000000f78001e00780000f0a700dd
:104b7c000000ea000000ea004f00de000040780070
:104b8c000080fa00000006000000fa00218080007e
:104b9c0030808000808f500009003a00e1118000c5
:104bac00000820000080600000f0a7000000ea0070
:104bbc000000ea004f00de000040780001003700e2
:104bcc000040eb000080fa00000006000400fa0030
:104bdc000180800011079800108080009e009000da
:104bec00808f5000060031009e00900010808000e5
:104bfc000080500069004000000f7800040037006e
:104c0c009e0090001080800000805000000f780003
:104c1c00f00f20009e007800808f500002003600bc
:104c2c0000c0eb00020037001e0078000040780046
:104c3c000080fa00000006000400fa0031808000b9
:104c4c0011079800218080001e009000808f50007a
:104c5c00060031009e0090002080800000805000f3
:104c6c000000e900000f7800050037009e0090005e
:104c7c00208080000080500068004000000f780009
:104c8c00f00f20009e007800808f5000020036004c
:104c9c0000c0eb00020037001e00780000407800d6
:104cac000080fa00000006000800fa0020079800b7
:104cbc0031079800c5ff07000080fb00000f78004b
:104ccc003e0090009e0f500002003100be0090008c
:104cdc00010f78000000eb00100798000900370066
:104cec0059ff0700ae009000804878002e0090001d
:104cfc000000e800200798001e0090000000e8006b
:104d0c00100798001e0090009e0f5000f4ff390011
:104d1c001e0078000080fa00000006000800fa006f
:104d2c002007980031079800c3ff07000080fb00a4
:104d3c00000f78003e0090009e0f500002003100e2
:104d4c00be009000010f78000000eb0010079800e7
:104d5c00090037002e00900010407800ae00900043
:104d6c008100e800210798004dff07001e0090000d
:104d7c000000e800100798001e0090009e0f5000e5
:104d8c00f4ff39001e0078000080fa0000000600d5
:104d9c000400fa000000eb00000f78008bff070006
:104dac0020479800a4ff0700304798002e40900041
:104dbc000080fb000000e00003003200e90f50000f
:104dcc0003003200040037001e20a000040037004e
:104ddc001e00a000020037001e10a0000000000002
:104dec003e4090000080fb000000e0000300320019
:104dfc00e90f500003003200040037001e30a00001
:104e0c00020037001e40a000000000001e007800c9
:104e1c000080fa00000006000400fa001007980059
:104e2c00118080001e009000008f400002003700af
:104e3c009e007800698f5000201221009e0078009f
:104e4c00808f5000faff3e001e0078001040780062
:104e5c000080fa00000006000000fa005bff07006b
:104e6c000080fb000000e9004f00de0000407800ed
:104e7c000080fa00000006000000fa006eff070038
:104e8c000080fb000000e9004f00de0000407800cd
:104e9c000080fa00000006000400fa00f011800007
:104eac008000eb00008fbe001e00be00c001dd00c4
:104ebc0002002000e01180008000eb000000710077
:104ecc00818071000080fa00000006000000fa00ea
:104edc0059ff07000004e000100032003180800010
:104eec0020808000808f50000600360030808000cb
:104efc008000780020808000008050000000e900d5
:104f0c00070037003080800080007800208080000f
:104f1c000080500068004000010037000000eb00ea
:104f2c000080fa00000006000000fa0027ff0700ce
:104f3c000004e0001000320011808000008080002e
:104f4c00808f5000060036001080800080007800b2
:104f5c0000808000008050000000e900070037004e
:104f6c00108080008000780000808000008050005d
:104f7c0068004000010037000000eb000080fa00e0
:104f8c00000006000000fa0039e2a80038a2a800d0
:104f9c003882a8000080fa00000006000000fa0029
:104fac0039e2a90038a2a9003882a9000080fa00d1
:104fbc0000000600ce00fa000000eb00000f7800a5
:104fcc00050307005002070000332a0032f10700e6
:104fdc000300370000000000010037000000000053
:104fec00c4fe07000000e000faff320096fe070046
:104ffc00204798002e409000ed4f500079003a0069
:10500c00d0332a0024f107006300470051342a00f2
:10501c00b2ee07000000e00005003a008e00070029
:10502c00d1000700b300070000352a001af1070071
:10503c006300470071362a00a8ee07000000e0006c
:10504c0005003a0084000700c7000700a400070011
:10505c0000372a0010f107006300470051382a007e
:10506c009eee07000000e00005003a007f000700fc
:10507c00c20007009f000700e0382a0006f1070075
:10508c0063004700313a2a0094ee07000000e0006c
:10509c0005003a0070000700b800070090000700f8
:1050ac00d03a2a00fcf0070063004700313c2a008c
:1050bc008aee07000000e00005003a006b000700d4
:1050cc00a900070086000700b03c2a00f2f0070098
:1050dc0063004700f13d2a0080ee07000000e0006d
:1050ec0005003a005c000700a400070081000700df
:1050fc00603e2a00e8f0070063004700913f2a0059
:10510c0076ee07000000e00005003a0057000700ab
:10511c00950007007700070010402a00def007001a
:10512c006300470051412a006cee07000000e000cc
:10513c0005003a004d0007009000070068000700ca
:10514c00e0412a00d4f0070063004700c10c2000a6
:10515c008e804000811f7800710620008e804000f8
:10516c00811f780031432a00811f780062ee07000e
:10517c00e6875700e20f50000d003a007006200041
:10518c000e004000801f780090432a00801f78009a
:10519c00acf00700e48757006ea09000801f7800e9
:1051ac0000452a00801f7800a6f00700e48757000e
:1051bc00630047001e0040008040eb00014878006f
:1051cc0063004700801f78009ef007008f87e9007e
:1051dc0010462a00b0f007000000eb00000f78002a
:1051ec0013003700ae409000630047001e004000e3
:1051fc00014878001e0fe8002e4090000080fb0054
:10520c00801f780030462a00801f78008df0070040
:10521c00e48757002e4090000080fb00801f780030
:10522c0070462a00801f780086f00700e48757003c
:10523c00e00107000000e00068ff3a00c20107002f
:10524c00801f780060472a00801f78007df00700df
:10525c00e487570062ff37000000fa0073eea900e4
:10526c0077eea8000080fa00000006000000fa00ab
:10527c0073eea90077eea9000080fa00000006008a
:10528c000000fa00b173800000002800008060006c
:10529c000000e00002003200f4ff070001003700bc
:1052ac00edff07000080fa00000006000200fa0083
:1052bc00000f78001e0078004f00de00000f780011
:1052cc001e007800e10f500002003a00e2ff0700d8
:1052dc0001003700e5ff07000080fa00000006001f
:1052ec000000fa0073cea90077cea8000080fa0067
:1052fc00000006000000fa0073cea90077cea900ca
:10530c000080fa00000006000000fa00b173800073
:10531c0000002400008060000000e0000200320069
:10532c00f4ff070001003700edff07000080fa00d2
:10533c00000006000200fa00000f78001e00780042
:10534c004f00de00000f78001e007800e10f5000c7
:10535c0002003a00e2ff070001003700e5ff0700fa
:10536c000080fa00000006000000fa0073aea900ed
:10537c0077aea8000080fa00000006000000fa00da
:10538c0073aea90077aea9000080fa0000000600f9
:10539c000000fa00b1738000000022000080600061
:1053ac000000e00002003200f4ff070001003700ab
:1053bc00edff07000080fa00000006000200fa0072
:1053cc00000f78001e0078004f00de00000f780000
:1053dc001e007800e10f500002003a00e2ff0700c7
:1053ec0001003700e5ff07000080fa00000006000e
:1053fc000000fa0098ff0700dbff0700b8ff07006a
:10540c000080fa00000006000000fa0097ff070079
:10541c00daff0700b7ff07000080fa000000060063
:10542c000000fa0096ff0700d9ff0700b6ff07003f
:10543c000080fa00000006000600fa00000f780059
