:020000040000fa
:080000000002040000000000f2
:020000040000fa
:0400080002030000ef
:020000040000fa
:04000c0014030000d9
:020000040000fa
:0400100024030000c5
:020000040000fa
:040014000a030000db
:020000040000fa
:040018001c030000c5
:020000040000fa
:04001c00620400007a
:020000040000fa
:040020002c030000ad
:020000040000fa
:040024006204000072
:020000040000fa
:04002800620400006e
:020000040000fa
:04002c00620400006a
:020000040000fa
:040030006204000066
:020000040000fa
:040034006204000062
:020000040000fa
:04003800620400005e
:020000040000fa
:04003c00620400005a
:020000040000fa
:0400400012040000a6
:020000040000fa
:040044003a0400007a
:020000040000fa
:04004800620400004e
:020000040000fa
:04004c00620400004a
:020000040000fa
:040050006204000046
:020000040000fa
:040054008e03000017
:020000040000fa
:04005800340300006d
:020000040000fa
:04005c00620400003a
:020000040000fa
:040060006204000036
:020000040000fa
:040064006204000032
:020000040000fa
:04006800620400002e
:020000040000fa
:04006c00620400002a
:020000040000fa
:040070006204000026
:020000040000fa
:040074006204000022
:020000040000fa
:04007800620400001e
:020000040000fa
:04007c00620400001a
:020000040000fa
:040080006204000016
:020000040000fa
:040084006204000012
:020000040000fa
:04008800620400000e
:020000040000fa
:04008c00620400000a
:020000040000fa
:040090006204000006
:020000040000fa
:040094006204000002
:020000040000fa
:0400980062040000fe
:020000040000fa
:04009c0062040000fa
:020000040000fa
:0400a00062040000f6
:020000040000fa
:0400a40062040000f2
:020000040000fa
:0400a80062040000ee
:020000040000fa
:0400ac0062040000ea
:020000040000fa
:0400b00062040000e6
:020000040000fa
:0400b40062040000e2
:020000040000fa
:0400b80062040000de
:020000040000fa
:0400bc0062040000da
:020000040000fa
:0400c00062040000d6
:020000040000fa
:0400c40062040000d2
:020000040000fa
:0400c80062040000ce
:020000040000fa
:0400cc0062040000ca
:020000040000fa
:0400d00062040000c6
:020000040000fa
:0400d40062040000c2
:020000040000fa
:0400d80062040000be
:020000040000fa
:0400dc0062040000ba
:020000040000fa
:0400e00062040000b6
:020000040000fa
:0400e40062040000b2
:020000040000fa
:0400e80062040000ae
:020000040000fa
:0400ec00f403000019
:020000040000fa
:0400f00062040000a6
:020000040000fa
:0400f40062040000a2
:020000040000fa
:0400f800620400009e
:020000040000fa
:0400fc00620400009a
:020000040000fa
:040100006204000095
:020000040000fa
:040104006204000091
:020000040000fa
:04010800620400008d
:020000040000fa
:04010c006204000089
:020000040000fa
:040110006204000085
:020000040000fa
:040114006204000081
:020000040000fa
:04011800620400007d
:020000040000fa
:04011c006204000079
:020000040000fa
:040120006204000075
:020000040000fa
:040124006204000071
:020000040000fa
:04012800620400006d
:020000040000fa
:04012c006204000069
:020000040000fa
:040130006204000065
:020000040000fa
:040134006204000061
:020000040000fa
:04013800620400005d
:020000040000fa
:04013c006204000059
:020000040000fa
:040140006204000055
:020000040000fa
:040144006204000051
:020000040000fa
:04014800620400004d
:020000040000fa
:04014c006204000049
:020000040000fa
:040150006204000045
:020000040000fa
:040154006204000041
:020000040000fa
:04015800620400003d
:020000040000fa
:04015c006204000039
:020000040000fa
:040160006204000035
:020000040000fa
:040164006204000031
:020000040000fa
:04016800620400002d
:020000040000fa
:04016c006204000029
:020000040000fa
:040170006204000025
:020000040000fa
:040174006204000021
:020000040000fa
:04017800620400001d
:020000040000fa
:04017c006204000019
:020000040000fa
:040180006204000015
:020000040000fa
:040184006204000011
:020000040000fa
:04018800620400000d
:020000040000fa
:04018c006204000009
:020000040000fa
:040190006204000005
:020000040000fa
:040194006204000001
:020000040000fa
:0401980062040000fd
:020000040000fa
:04019c0062040000f9
:020000040000fa
:0401a00062040000f5
:020000040000fa
:0401a40062040000f1
:020000040000fa
:0401a80062040000ed
:020000040000fa
:0401ac0062040000e9
:020000040000fa
:0401b00062040000e5
:020000040000fa
:0401b40062040000e1
:020000040000fa
:0401b80062040000dd
:020000040000fa
:0401bc0062040000d9
:020000040000fa
:0401c00062040000d5
:020000040000fa
:0401c40062040000d1
:020000040000fa
:0401c80062040000cd
:020000040000fa
:0401cc0062040000c9
:020000040000fa
:0401d00062040000c5
:020000040000fa
:0401d40062040000c1
:020000040000fa
:0401d80062040000bd
:020000040000fa
:0401dc0062040000b9
:020000040000fa
:0401e00062040000b5
:020000040000fa
:0401e40062040000b1
:020000040000fa
:0401e80062040000ad
:020000040000fa
:0401ec0062040000a9
:020000040000fa
:0401f00062040000a5
:020000040000fa
:0401f40062040000a1
:020000040000fa
:0401f800620400009d
:020000040000fa
:0401fc006204000099
:020000040000fa
:040200006204000094
:020000040000fa
:040204006204000090
:020000040000fa
:04020800620400008c
:020000040000fa
:04020c006204000088
:020000040000fa
:040210006204000084
:020000040000fa
:040214006204000080
:020000040000fa
:04021800620400007c
:020000040000fa
:04021c006204000078
:020000040000fa
:040220006204000074
:020000040000fa
:040224006204000070
:020000040000fa
:04022800620400006c
:020000040000fa
:04022c006204000068
:020000040000fa
:040230006204000064
:020000040000fa
:040234006204000060
:020000040000fa
:04023800620400005c
:020000040000fa
:04023c006204000058
:020000040000fa
:040240006204000054
:020000040000fa
:040244006204000050
:020000040000fa
:04024800620400004c
:020000040000fa
:04024c006204000048
:020000040000fa
:040250006204000044
:020000040000fa
:040254006204000040
:020000040000fa
:04025800620400003c
:020000040000fa
:04025c006204000038
:020000040000fa
:040260006204000034
:020000040000fa
:040264006204000030
:020000040000fa
:04026800620400002c
:020000040000fa
:04026c006204000028
:020000040000fa
:040270006204000024
:020000040000fa
:040274006204000020
:020000040000fa
:04027800620400001c
:020000040000fa
:04027c006204000018
:020000040000fa
:040280006204000014
:020000040000fa
:040284006204000010
:020000040000fa
:04028800620400000c
:020000040000fa
:04028c006204000008
:020000040000fa
:040290006204000004
:020000040000fa
:040294006204000000
:020000040000fa
:0402980062040000fc
:020000040000fa
:04029c0062040000f8
:020000040000fa
:0402a00062040000f4
:020000040000fa
:0402a40062040000f0
:020000040000fa
:0402a80062040000ec
:020000040000fa
:0402ac0062040000e8
:020000040000fa
:0402b00062040000e4
:020000040000fa
:0402b40062040000e0
:020000040000fa
:0402b80062040000dc
:020000040000fa
:0402bc0062040000d8
:020000040000fa
:0402c00062040000d4
:020000040000fa
:0402c40062040000d0
:020000040000fa
:0402c80062040000cc
:020000040000fa
:0402cc0062040000c8
:020000040000fa
:0402d00062040000c4
:020000040000fa
:0402d40062040000c0
:020000040000fa
:0402d80062040000bc
:020000040000fa
:0402dc0062040000b8
:020000040000fa
:0402e00062040000b4
:020000040000fa
:0402e40062040000b0
:020000040000fa
:0402e80062040000ac
:020000040000fa
:0402ec0062040000a8
:020000040000fa
:0402f00062040000a4
:020000040000fa
:0402f40062040000a0
:020000040000fa
:0402f800620400009c
:020000040000fa
:0402fc006204000098
:020000040000fa
:040300006204000093
:020000040000fa
:04030400620400008f
:020000040000fa
:04030800620400008b
:020000040000fa
:04030c006204000087
:020000040000fa
:040310006204000083
:020000040000fa
:04031400620400007f
:020000040000fa
:04031800620400007b
:020000040000fa
:04031c000a040000cf
:020000040000fa
:040320006204000073
:020000040000fa
:04032400620400006f
:020000040000fa
:04032800620400006b
:020000040000fa
:04032c006204000067
:020000040000fa
:040330006204000063
:020000040000fa
:04033400620400005f
:020000040000fa
:100400000f0c21000eff26000e01880000000000e6
:10041000000020000000e000020032000001200087
:100420002002880014000700440107000000e000db
:1004300003003a00401321000100200002003700b1
:100440000000200001002000810f70000100320038
:100450000f000700000020000000e0000200320052
:1004600000000200000000000a120200000000006c
:100470000040da000000fe00e00320000000e00081
:1004800002003200002020009001880000000600d9
:10049000a1028800800478000000eb001f003700f4
:1004a000e284440054a0b4009905ba00e2844400f8
:1004b00054a0b4009906ba00e284440054a0b400e9
:1004c0000006eb00476fde00fd07b200ae018800ba
:1004d000636ce10003003a000ad801000000eb0061
:1004e0000e003700606ce10008003a00004deb00a0
:1004f0000a05e800020039003420ec000af0a000f0
:100500008b05e900f9ff3e00040037006168e10057
:10051000010032000086eb000b00070019c7ba008b
:100520001905ba000e04e00003003a000a00e000da
:10053000dbff3a0000000600fe07b200ae028800b2
:100540008a047800f5ff37000cd0a300e20f4d00bd
:100550001c00390089027800354dba000a05e80010
:10056000020039003420ec000af0a0008b05e900fd
:100570000f003200254dba000a05e80002003900dc
:100580003420ec000af0a0008b05e90008003200de
:100590000c00e0000600320015cdba000a05e800a4
:1005a000020039003420ec000af0a0008b05e900bd
:1005b0008984e80054a0b4000b00e000e2ff3a0098
:1005c000000006009902ba00055d78008b05e9007d
:1005d000f7ff3200c82ade00055d78008b05e900d0
:1005e000f3ff32000c00e000f1ff320019ddba0029
:1005f000eeff3700200c0400000000003e0c040059
:10060000000000003600f800c028a9000000eb0040
:10061000db0707003600f800dd070700c048a90027
:1006200010002000d60707003600f800c068a900b7
:1006300020002000d20707003600f800c088a9007b
:1006400030002000ce0707003600f800c608a900d9
:1006500070002000ca0707003600f800c408a9008f
:10066000b0002000c60707003600f800809fbe00db
:10067000829fbe00849fbe00869fbe000000fa00dd
:1006800050808000000001003180800020808000c8
:10069000808f500002003a002188a900180037001e
:1006a0000188a90010003700308080009040780059
:1006b0008180fb00411288000000e8003080880043
:1006c00031808000100b2100808f500002003a0022
:1006d000800a2100308088003180800020808000e6
:1006e000808f500005003200f01180007000600023
:1006f0000000e000ecff32000100370000000000c5
:100700000080fa004f03be004f02be004f01be0042
:100710004f00be003600f900004006003600f80029
:10072000809fbe00829fbe00849fbe00869fbe0049
:100730000000fa0060808000000001000168a9004c
:100740001e00370000808000211280008140780068
:100750000148780001808000900b2100808f5000bc
:1007600009003200008080008000e80010808000d6
:10077000808f500004003200008080000000e800fc
:10078000008088000d00370001808000900b210060
:10079000808f500007003a0011808000100b21006c
:1007a000808f500003003200100b21000080880071
:1007b0000200370010c0b30008f0b700f01180004d
:1007c000620060000000e000deff32000080fa00fe
:1007d0004f03be004f02be004f01be004f00be00df
:1007e0003600f90000400600801f78000000fa0083
:1007f000e0118000620060000000e00001003200b3
:100800003c22a9000628a9000080fa004f007800c9
:10081000004006000000fa0017a8a9000080fa00b6
:10082000004006003600f800809fbe00829fbe0098
:10083000849fbe00869fbe000000fa000140800039
:1008400000042000008060000000e0000200320090
:100850001106070000c8a9000080fa004f03be007f
:100860004f02be004f01be004f00be003600f9002f
:10087000004006003600f800809fbe00829fbe0048
:10088000849fbe00869fbe000000fa0001408000e9
:1008900000082000008060000000e000020032003c
:1008a0000406070000e8a9000080fa004f03be001c
:1008b0004f02be004f01be004f00be003600f900df
:1008c000004006000040da000000fe000a00fa00c6
:1008d000200798003107980042079800be0090005a
:1008e000110798000000eb00000f78000c003700a3
:1008f000000000001a0407000004a2000004e00049
:10090000fcff3a001e009000104078009e0090000e
:100910008100e80011079800f10307001e0fe800ae
:100920004e0090009e007800808f5000f0ff39004c
:100930004e0090000080fa00000006000000050054
:100940000000fa0068815700cfb89700e006210048
:10095000c20007000080fa00000006000000fa0054
:1009600068815700cfb89700e0062100bb00070060
:100970000080fa0000000600889fbe000104780095
:10098000b80090008084eb000118a3003a00320008
:10099000180190000198a30002003a000200e00054
:1009a00035003a000190a0003104980080047800de
:1009b000f90fb2000200e00002003a0028009000a7
:1009c000000c7800ea8f540005003a000178a3007b
:1009d00003003a0088007800d0002000e6ff0700fe
:1009e00018009000d8009000810f50000b003200da
:1009f0000000e8001004980018007800094878000a
:100a0000000ce80011c0b300a00b210001487800e1
:100a1000ea8f540018003a0005003700880078007b
:100a2000094078002f00070080047800120037008a
:100a3000380090000088a3000f00320018019000d9
:100a4000a800900048009000a0ff070098009000c8
:100a5000810f500004003200380090000003b30002
:100a6000300498008084eb000000eb001004980034
:100a700028009000000c7800090078004f04be00a8
:100a800000000600889fbe000004be00050037007d
:100a90000000fb0089007800b7ff0700e10f40006d
:100aa00004003200384078000004e000f8ff3a000b
:100ab0000000eb004f04be0000000600881f780015
:100ac000e1062100efff070000047800e1062100a5
:100ad000a0002000a8ff0700080078004f0478005d
:100ae000000006000200fa00889fbe00a0ff9f00e1
:100af00001047800380090000068a30033003a0039
:100b0000e200600005003a000003b30030049800e2
:100b1000110498000080eb002e003700d8049000ec
:100b20000900e00006003a0012002000e6805700ad
:100b30004800900065ff0700190498002300370063
:100b4000a80090000100e00008003a00d10b21004d
:100b500021049800010c7800210020005104980025
:100b6000110498000030a000300498001801900093
:100b7000a80090004800900054ff07002800900053
:100b80008080eb0011049800aff8970001487800ce
:100b9000000ce8002ff89700ea4f50000b003a00d5
:100ba000380090000088a30008003200180190006f
:100bb000a80090004800900044ff07000000eb00f0
:100bc00010049800a8009000010c7800aff897007e
:100bd0000100fb004f04be000080fa000000060088
:100be0006022b800060220000000d0008180d20000
:100bf0000482d2008582d2000000a00002025200ce
:100c000083825a00030031000202420083824a00bc
:100c10000000a1000603e900f3ff3a00000006000f
:100c2000020ab900001bb9000200b80081004200ae
:100c30008100430000000600d001900002815100b5
:100c40004240a900030034001001780001497800f7
:100c50000208e8000100780000000600f68747005f
:100c6000889fbe008a9fbe008c9fbe008e1f7800aa
:100c700000057800a1b79f00020778008004eb0010
:100c800090023700afb097008100e800a1b79f0045
:100c900051c2b300814f500003003a00afb097003b
:100ca0000004eb0011003700ba0090000000fb00c8
:100cb0000168a30007003200090178008000780075
:100cc0000a007800dcff07000000e00005003a00a1
:100cd0007c0237008a00780027ff0700e10f400000
:100ce000780232008904e8007602370001007800bb
:100cf00031417800d3c2b300834f51000c00320061
:100d000007003c00edc15100834f51000a00320042
:100d1000ebc14100834f51000d003a00080037003d
:100d200003c3b300834f510009003a0006003700a7
:100d30000830a000edff37000800a000ebff3700ef
:100d40000810a000e9ff37000820a000e7ff3700e7
:100d50000818a300010032000800a1000838a30011
:100d6000010032000820a1008200fb000103b10055
:100d7000e98f50000c003e00000178008000eb007d
:100d80006a08b900b201fb000303b1008080410092
:100d9000020078009201fb000303b100e98f5100cb
:100da000f7ff3600060037008000eb00a3c2b30057
:100db000834f510002003a00ce0078000000e800a6
:100dc0008005eb00e2c2b300904f110009003a0029
:100dd00008e0a00064415100d04f11000300320030
:100de000000178000102780006003700ce05780087
:100df0000000e80000017800090037006a58b900d7
:100e00008085410002007800b201fb000303b100bd
:100e1000e98f5100f9ff360084007800f5ff3700b4
:100e200032407800a2b79f00c3c6b300834f500082
:100e3000250032000f003c0032c6b300824f500044
:100e40008800320004003c000004e000220232006e
:100e50006b4151000f00370042c6b300824f500073
:100e60001700320065414100824f500094003a0063
:100e70001300370032c7b300824f50001b0032000e
:100e800007003c0064415100824f500010003200c6
:100e90000241e800824f500089003a000f003700fd
:100ea00052c7b300824f50008a00320063414100b4
:100eb000824f500082003a00e0df9f0009003700b7
:100ec000e0df9f00850037000840a000d4ff370016
:100ed000e0df9f000860a00080003700e0df9f0097
:100ee0000850a0000870a0007c003700e0df9f00e1
:100ef0004e007800000678000000e00001003a0093
:100f00002c0321000c0178000000eb0001003700e9
:100f10000000e800e24178000304e000fcff3a0032
:100f2000800678000b00e000030032008d8f550032
:100f3000010031008b0678008005eb008d8f50009a
:100f4000010036008d855000680464002a003a00d4
:100f5000110037003a0090000068a300070032003b
:100f600009017800010220000a00780032ff070022
:100f70000000e00006003a00060037008a00780012
:100f8000000220007cfe0700e10f4000010032005b
:100f90008904e8008b05e9000b00e000edff3a0052
:100fa0008085eb00140037003a0090000068a30031
:100fb000090032000c007800b000fb000006780049
:100fc000090178000a0078001bff07000000e0001c
:100fd00008003a00080037008c0078003100fb0060
:100fe000010678008a00780063fe0700e10f4000e8
:100ff000010032008904e8000d0078008006e90055
:101000000000e000e8ff3a000800e000ad01320017
:10101000110037003a0090000068a300070032007a
:1010200009017800010220000a00780002ff070091
:101030000000e00006003a00060037008a00780051
:10104000000220004cfe0700e10f400001003200ca
:101050008904e8008b05e9000b00e000edff3a0091
:10106000980137004e017800cf91de00c81ade00eb
:101070004818dd004812de0004027000e4df9f0023
:101080000848a300080032000404e0000600320013
:10109000e14f420004003200f4df9f0082e79f002e
:1010a0002d00200002003700f2df9f001d0020000d
:1010b000e2fd2f000f0141000206e80099ff370012
:1010c000e0df9f00ecfd2f000f0646001d00200012
:1010d00094ff3700e0df9f00080cb30008017800a0
:1010e000020cb200700064000200e0000d003a0043
:1010f0000000e000020032004e06be000200370091
:101100004e067800cfe6de00e00f5600e08f5e006e
:101110000a003d003800b30060061600e0861e009d
:10112000060037000000e000020032004e06be005c
:10113000020037004e0678008006eb000b00e0004e
:1011400005003a008c8576000bf0a7008b05ea00bd
:101150008b05e900cf5dde0088017800030cb2004a
:10116000e3b79f0000042000808f5100230032006d
:1011700003003c000300e000080032002d003700af
:10118000000820006fb29700800f52000d0032005f
:10119000000c2000800f520026003a00a20321001c
:1011a00010c0b30064014100b20f5600a28f5e0070
:1011b0001f0039000040e800ea4f5000f9ff3a00f4
:1011c0001b00370010c0b300020120000300200004
:1011d000820f5600838f5e0015003900441add002f
:1011e000cc11de00830172004411dd000040e800f4
:1011f000e84f5000f6ff3a000d00370010c0b30072
:101200008200200003002000820f5600838f5e00c2
:1012100007003900431add00cd11de0083017200a2
:101220004311dd000040e800eb4f5000f6ff3a00ac
:10123000e0df9f006fd997000200fb008b0f50008a
:1012400002003d00ebdf9f0003003700808f550058
:1012500001003d00800578000100e000030032003d
:1012600063006400010032008100e90008e8a30087
:10127000050032008b8f5000020034008b8050003c
:10128000010037008000eb00efd997000300fb005e
:101290000002eb00d4b79f00808f500002003400a2
:1012a00000805000d0b79f000828a3004000320003
:1012b000610164000818a3000f0032003a0090009a
:1012c0000068a30006003200b10220000200e00026
:1012d000010032008180e800090178000d0037002c
:1012e000b00220000200e000010032000080e800af
:1012f0008a0078000e0037000200e0001000320083
:101300003a0090000068a30007003200090178004d
:10131000010220000a00780047fe07000000e000fc
:1013200006003a00060037008a007800000220001c
:1013300091fd0700e10f4000010032008904e80040
:101340005fb097000000e0005a003200bcb79f0079
:10135000cdb79f00800678003a0090000068a30097
:101360000700320009017800010320000a0078001c
:1013700031fe07000000e00006003a0006003700da
:101380008a007800000320007bfd0700e10f400089
:10139000010032008904e8008d06e900eeff3a0002
:1013a000ddb79f003fb69700cfb6970041003700ea
:1013b000dfb197000300e0001a0032000838a300f4
:1013c00018003a00bcb79f00cdb79f008306780095
:1013d0003a0090000068a30007003200090178007d
:1013e000010220000a00780013fe07000000e00060
:1013f00006003a00060037008a007800000220004c
:101400005dfd0700e10f4000010032008904e800a3
:101410008d06e900eeff3a00ddb79f003fb697006a
:10142000cfb69700610164000818a3000f003200d6
:101430003a0090000068a30006003200b1022000cc
:101440000200e000010032008180e800090178001c
:101450000d003700b00220000200e0000100320061
:101460000080e8008a0078000e0037000200e000eb
:10147000100032003a0090000068a300070032001c
:1014800009017800010220000a007800eafd070047
:101490000000e00006003a00060037008a007800ed
:1014a0000002200034fd0700e10f4000010032007f
:1014b0008904e8000b03e9006330b90000017800fb
:1014c000b2b79f004233dd00a003210000034300b8
:1014d0008e01780093b79f00080778000604780013
:1014e0005c0037008b05e900000420006fb2970014
:1014f000800f52003800320003003c000400e0007e
:10150000080032003e00370000082000efb09700ce
:10151000808f500020003200000c2000808f50008f
:1015200037003a000e48a300100032001802be0037
:101530000401be000c00be00f4b79f0085bf9f00f1
:10154000a7fd0700e0df9f000000fb00cf80de006a
:101550007fb297008fba97000401be00b0fd07006c
:101560000006560081865e000700370018017800eb
:10157000050009000286d800a2002000050009002d
:101580000280d800e1df9f006fd997000243b000ce
:10159000e2df9f001a003700100221000e58a3005e
:1015a0000100320000012100a1032100810054004c
:1015b0000c01be008100e900030033008301d1006b
:1015c0000281d300fbff3700ef006100e0c078002c
:1015d000e1df9f000a0037000c00be00bfb197009a
:1015e0008301e900030033008100d1000080d300b3
:1015f000fbff3700674060000043b000e0df9f0062
:10160000ba0090006fda97000400fb000168a300a5
:101610000700320009017800800078000a00780095
:1016200085fd07000000e00005003a0005003700d6
:101630008a007800d0fc0700e10f40000100320072
:101640008904e8003fb0970063005000b0b79f00e6
:10165000640454000b00e000a2ff3a000e0478007e
:101660001fb797000838a30016003200dfb09700bc
:101670000100e00013003400010478003a009000fb
:101680000068a30007003200090178000102200071
:101690000a00780068fd07000000e00006003a003c
:1016a000060037008a00780000022000b2fc070024
:1016b000e10f4000010032008904e8000804e9005d
:1016c000eeff3a002fb1970012407800e0df9f0054
:1016d0000004e0006bfd3a00090078004f07780035
:1016e0004f06be004f05be004f04be006f01b100a3
:0416f00000000600f0
:020000040000fa
:1016f400486500006c6c00006f2000000d000000c5
:101704004a75000073740000206700006f740000c5
:1017140020250000642000000d0a0000004700009e
:101724006f740000206100006e20000065760000e8
:10173400656e000074200000617400002025000024
:10174400642000000d0a0000000000005343000064
:101754004350000031200000436100006c6c000025
:0c17640062610000636b000021000000c7
:020000040000fa
:101770000000fa002188a9002168a90000082000c3
:10178000c01188003a22ef003c22ef002002200026
:10179000f011880090012000001288004222ef0022
:1017a0004c22ef004e22ef005022ef005222ef00b9
:1017b0005422ef005622ef005822ef005a22ef0089
:1017c0005c22ef00800a210030808800800a21001e
:1017d00020808800100b210010808800100b210051
:1017e000008088000870ef0000c220000800070099
:1017f000e0c32000150007002168a80039e2a80016
:1018000038a2a8003882a8000080fa000000060074
:101810000200fa00000f78001e0078000000e000cf
:1018200003003a0000c22000508088000200370008
:101830001e007800508088000080fa00000006003a
:101840000000fa000080fa00000006000200fa0022
:10185000000f78001e0078000000e00003003a004e
:10186000e0c3200060808800020037001e0078007e
:10187000608088000080fa00000006000000fa0086
:101880000080fa00000006000200fa000040eb00b1
:10189000004f780000000000118080000080800070
:1018a000808f5000fcff320010808000104f7800c5
:1018b000108080000000e800108088001180800007
:1018c000a00b2100808f500002003a00100b210075
:1018d000108088001e4078000080fa00000006009a
:1018e0000200fa00004f7800000000001c00070012
:1018f0000004a2000004e000fcff3a002080800009
:101900001e487800208080000000e80020808800c9
:1019100021808000100b2100808f500002003a00cf
:10192000800a2100208088002188a8000080fa0019
:10193000000006000000fa00118080000080800096
:101940000080680000f0a7000000ea000000ea0044
:101950004f00de00004078000080fa000000060022
:101960000400fa0031808000110798002180800077
:101970001e009000808f5000060031009e009000f5
:1019800020808000008050000000e900000f7800f7
:10199000050037009e0090002080800000805000ed
:1019a00068004000000f78001e00780000f0a700db
:1019b0000000ea000000ea004f00de00004078006e
:1019c0000080fa00000006000000fa00218080007c
:1019d00030808000808f500009003a00e1118000c3
:1019e000000820000080600000f0a7000000ea006e
:1019f0000000ea004f00de000040780001003700e0
:101a00000040eb000080fa00000006000400fa002d
:101a10000180800011079800108080009e009000d7
:101a2000808f5000060031009e00900010808000e2
:101a30000080500069004000000f7800040037006b
:101a40009e0090001080800000805000000f780001
:101a5000f00f20009e007800808f500002003600ba
:101a600000c0eb00020037001e0078000040780044
:101a70000080fa00000006000400fa0031808000b7
:101a800011079800218080001e009000808f500078
:101a9000060031009e0090002080800000805000f1
:101aa0000000e900000f7800050037009e0090005c
:101ab000208080000080500068004000000f780007
:101ac000f00f20009e007800808f5000020036004a
:101ad00000c0eb00020037001e00780000407800d4
:101ae0000080fa00000006000800fa0020079800b5
:101af00031079800c5ff07000080fb00000f780049
:101b00003e0090009e0f500002003100be00900089
:101b1000010f78000000eb00100798000900370063
:101b200059ff0700ae009000804878002e0090001a
:101b30000000e800200798001e0090000000e80068
:101b4000100798001e0090009e0f5000f4ff39000f
:101b50001e0078000080fa00000006000800fa006d
:101b60002007980031079800c3ff07000080fb00a2
:101b7000000f78003e0090009e0f500002003100e0
:101b8000be009000010f78000000eb0010079800e5
:101b9000090037002e00900010407800ae00900041
:101ba0008100e800210798004dff07001e0090000b
:101bb0000000e800100798001e0090009e0f5000e3
:101bc000f4ff39001e0078000080fa0000000600d3
:101bd0000400fa000000eb00000f78008bff070004
:101be00020479800a4ff0700304798002e4090003f
:101bf0000080fb000000e00003003200e90f50000d
:101c000003003200040037001e20a000040037004b
:101c10001e00a000020037001e10a00000000000ff
:101c20003e4090000080fb000000e0000300320016
:101c3000e90f500003003200040037001e30a000fe
:101c4000020037001e40a000000000001e007800c7
:101c50000080fa00000006000400fa001007980057
:101c6000118080001e009000008f400002003700ad
:101c70009e007800698f5000a00b21009e00780024
:101c8000808f5000faff3e001e0078001040780060
:101c90000080fa00000006000000fa005bff070069
:101ca0000080fb000000e9004f00de0000407800eb
:101cb0000080fa00000006000000fa006eff070036
:101cc0000080fb000000e9004f00de0000407800cb
:101cd0000080fa00000006000400fa00f011800005
:101ce0008000eb00008fbe001e00be00c001dd00c2
:101cf00002002000e01180008000eb000000710075
:101d0000818071000080fa00000006000000fa00e7
:101d100059ff07000004e00010003200318080000d
:101d200020808000808f50000600360030808000c8
:101d30008000780020808000008050000000e900d2
:101d4000070037003080800080007800208080000d
:101d50000080500068004000010037000000eb00e8
:101d60000080fa00000006000000fa0027ff0700cc
:101d70000004e0001000320011808000008080002c
:101d8000808f5000060036001080800080007800b0
:101d900000808000008050000000e900070037004c
:101da000108080008000780000808000008050005b
:101db00068004000010037000000eb000080fa00de
:101dc000000006000000fa0039e2a80038a2a800ce
:101dd0003882a8000080fa00000006000000fa0027
:101de00039e2a90038a2a9003882a9000080fa00cf
:101df000000006000000fa00007c80000080fa006d
:101e0000000006000200fa00faff0700000f780049
:101e10001e007800240007000004e00002003200e9
:101e200000002800710007001e0078002a0007004b
:101e30000004e00002003200000024006b000700f4
:101e40001e007800320007000004e00002003200ab
:101e500000202000650007001e0078003a000700ff
:101e60000004e00002003200000820005f000700cc
:101e70001e007800420007000004e000020032006b
:101e800000042000590007001e0078004a000700e7
:101e90000004e000020032000001200053000700af
:101ea0000080fa00000006000400fa001007980005
:101eb0000040eb00004f78001e0090000000e000a2
:101ec00002003d0010c0b300004f78001e407800b3
:101ed0000080fa00000006000400fa0010079800d5
:101ee0000040eb00004f78009e00900000002400ae
:101ef000008060000000e0000200320010c0b3006b
:101f0000004f78001e4078000080fa0000000600b4
:101f10000400fa00100798000040eb00004f780022
:101f20009e00900000202000008060000000e00083
:101f30000200320010c0b300004f78001e4078004d
:101f40000080fa00000006000400fa001007980064
:101f50000040eb00004f78009e0090000008200039
:101f6000008060000000e0000200320010c0b300fa
:101f7000004f78001e4078000080fa000000060044
:101f80000400fa00100798000040eb00004f7800b2
:101f90009e00900000042000008060000000e0002f
:101fa0000200320010c0b300004f78001e407800dd
:101fb0000080fa00000006000400fa0010079800f4
:101fc0000040eb00004f78001e00900070006000a1
:101fd0000000e0000200320010c0b300004f7800a3
:101fe0001e4078000080fa00000006000200fa009f
:101ff000000f78009e80ea00007c80000080600076
:10200000007c88000080fa00000006000000fa0052
:10201000802fef000080fa00000006000000fa00a8
:1020200010732000804a88005229ef005429ef00e5
:102030005629ef005a29ef005c29ef006029ef00d4
:102040006229ef006429ef006629ef006829ef009c
:102050006c29ef007029ef007229ef0051e9a80008
:1020600000c8a90020c8a80000e8a90020e8a8002e
:102070000080fa00000006000000fa0051e9a80004
:102080000080fa00000006000000fa0051e9a900f3
:102090000080fa00000006000000fa0080ba280064
:1020a000801f78002dfa07008f87e9000080fa0072
:1020b000000006000000fa000080fa0000000600a0
:1020c0000400fa000080eb008080eb00008fbe006f
:1020d000804b80008000eb00008fbe00904b8000a2
:1020e0008000eb00c000dd00000020001e1f70001b
:1020f0001e9770001e00be000080fa00000006005f
:102100000000fa0011a00a005c0900000080fb003a
:1021100000f0a7000000ea000000ea004f00de0027
:10212000004078000080fa00000006000000fa007d
:10213000e04a80006100600000f0a7000000ea00b3
:102140000000e9004f00de00004078000080fa0047
:10215000000006000000fa005c29a9000080fa00d7
:10216000000006000000fa00062eef00222eef000d
:102170003e2eef0000012000d0728800762eef0086
:10218000f001200010708800d0ff2f00f070880050
:102190000080eb00d0718800f0fe2f00b072880044
:1021a0000080eb00907388000c2eef00282eef00cb
:1021b000442eef00602eef007c2eef000a2eef0081
:1021c000262eef00422eef005e2eef007a2eef005b
:1021d000082eef00242eef00402eef005c2eef00c3
:1021e000782eef00f001200000708800c039200038
:1021f000e0708800f00c2000c071880000c0220050
:10220000a0728800f0002000807388000000eb00be
:1022100051052000b1468800a10a2000b14688007f
:102220000068880030c4b30028edb70000c4b300d4
:102230000bedb70010c4b3000aedb7001100200089
:1022400050210a00a40d000000802000510520004c
:10225000b1468800a10a2000b146880000688800c5
:082260000080fa0000000600f6
:020000040000fa
:102268008810000020000000800000000e10000010
:102278000200000082000000ffff0000a81000001c
:102288001200000080000000001000000e00000096
:10229800800000006210000026000000820000009c
:1022a800bb10000000bb1000090000000002000085
:1022b800bd10000000bd10000e020100000000006b
:1022c80000000000000000000602020000000000fc
:1022d80062100000ba100000060000008000000034
:1022e800101000005200000082000000303132005f
:1022f800333435003637380039414200434445000d
:102308004600300031323300343536003738390072
:10231800616263006465660000286e00756c6c007d
:102328002900000001000000000a0000000064000d
:1023380000000000e8030000001027000000a000d3
:102348008601000040420f000080960098000000bf
:10235800e1f5050000ca9a003b00000000000000fb
:020000040000fa
:102368000000fa0010002300307c8800600920007b
:10237800407c88008c2fef0010042000507c8800df
:1023880010102000707c880060092000807c880084
:1023980010042000907c88009a2fef00b82fef00df
:1023a800ba2fef00be2fef00002def00a02fef0097
:1023b800a42fef00a62fef00a82fef00aa2fef0001
:1023c800ae2fef00b02fef00b22fef002200200059
:1023d80080072000a109200053f8200080497800d8
:1023e80081497800824978000001eb0060042000f0
:1023f8007105200043f82000804978008149780061
:10240800824978000080fa00000006000000fa0007
:102418002900070016ff0700a0b72800a5f9070044
:10242800010037000000000040fd07000000e00048
:102438000800320012fd0700004078000080fb0011
:10244800801f780020b82800801f78003af907001c
:10245800e487570033ff07000000e000f1ff3a006f
:1024680015ff0700801f780010b92800801f78002a
:1024780031f90700e4875700ebff37000200fa0044
:10248800000f780021028000200f200000806000eb
:102498001e007000200288000080fa00000006007c
:1024a8000000fa00c3e8a8000000000000000000d7
:1024b8000080fa00000006000000fa0027ff07006d
:1024c800a7ff070007000700d2fe0700a6fc0700c9
:1024d800f3ff070000022000e8ff07000080fa0071
:1024e800000006000000fa0011002000a8210a00e0
:1024f8004208000011002000ec210a0042080000f8
:102508001100200064210a009e080000110020002c
:1025180020210a00460800001100200064210a005a
:102528005808000011002000ec210a0044080000af
:102538000080fa00000006000000fa0088ff07008b
:102548000080fa00000006000000fa00007c80000d
:102558000080fa00000006000000fa0027fe0700cd
:102568000080fa00000006000000fa00a5fe07003f
:102578000080fa0000000600000f78009e00780036
:1025880071808800ffff37000000fa0080082100f2
:1025980080077800000a2100000188000080fa0006
:0425a8000000060029
:020000040000fa
:020000040005f5
:047e0000ffff000080
:020000040000fa
:020000040005f5
:047e2000ffffff0061
:020000040000fa
:020000040005f5
:047e30007affff00d6
:020000040000fa
:020000040005f5
:047e3800bcffff008c
:020000040000fa
:020000040005f5
:047e40007f7fff0041
:020000040000fa
:020000040005f5
:047e4800ffffff0039
:020000040000fa
:020000040005f5
:047e5000ddffff0053
:020000040000fa
:020000040005f5
:047e58000000ff0027
:020000040000fa
:020000040005f5
:047e60000000ff001f
:020000040000fa
:020000040005f5
:047e68000000ff0017
:020000040000fa
:020000040005f5
:047e70000000ff000f
:020000040000fa
:020000040005f5
:047e7800ffffff0009
:020000040000fa
:020000040005f5
:047e8000fffcff0004
:020000040000fa
:020000040005f5
:047e8800ffffff00f9
:020000040000fa
:020000040005f5
:047ff800ffffff0088
:020000040000fa
:020000040100f9
:04300000ffffff00cf
:00000001FF
