:020000040000fa
:080000000002040000000000f2
:020000040000fa
:0400080002030000ef
:020000040000fa
:04000c0014030000d9
:020000040000fa
:0400100024030000c5
:020000040000fa
:040014000a030000db
:020000040000fa
:040018001c030000c5
:020000040000fa
:04001c00620400007a
:020000040000fa
:040020002c030000ad
:020000040000fa
:040024006204000072
:020000040000fa
:04002800620400006e
:020000040000fa
:04002c00620400006a
:020000040000fa
:040030006204000066
:020000040000fa
:040034006204000062
:020000040000fa
:04003800620400005e
:020000040000fa
:04003c00620400005a
:020000040000fa
:0400400012040000a6
:020000040000fa
:040044003a0400007a
:020000040000fa
:04004800620400004e
:020000040000fa
:04004c00620400004a
:020000040000fa
:040050006204000046
:020000040000fa
:040054008e03000017
:020000040000fa
:04005800340300006d
:020000040000fa
:04005c00620400003a
:020000040000fa
:040060006204000036
:020000040000fa
:040064006204000032
:020000040000fa
:04006800620400002e
:020000040000fa
:04006c00620400002a
:020000040000fa
:040070006204000026
:020000040000fa
:040074006204000022
:020000040000fa
:04007800620400001e
:020000040000fa
:04007c00620400001a
:020000040000fa
:040080006204000016
:020000040000fa
:040084006204000012
:020000040000fa
:04008800620400000e
:020000040000fa
:04008c00620400000a
:020000040000fa
:040090006204000006
:020000040000fa
:040094006204000002
:020000040000fa
:0400980062040000fe
:020000040000fa
:04009c0062040000fa
:020000040000fa
:0400a00062040000f6
:020000040000fa
:0400a40062040000f2
:020000040000fa
:0400a80062040000ee
:020000040000fa
:0400ac0062040000ea
:020000040000fa
:0400b00062040000e6
:020000040000fa
:0400b40062040000e2
:020000040000fa
:0400b80062040000de
:020000040000fa
:0400bc0062040000da
:020000040000fa
:0400c00062040000d6
:020000040000fa
:0400c40062040000d2
:020000040000fa
:0400c80062040000ce
:020000040000fa
:0400cc0062040000ca
:020000040000fa
:0400d00062040000c6
:020000040000fa
:0400d40062040000c2
:020000040000fa
:0400d80062040000be
:020000040000fa
:0400dc0062040000ba
:020000040000fa
:0400e00062040000b6
:020000040000fa
:0400e40062040000b2
:020000040000fa
:0400e80062040000ae
:020000040000fa
:0400ec00f403000019
:020000040000fa
:0400f00062040000a6
:020000040000fa
:0400f40062040000a2
:020000040000fa
:0400f800620400009e
:020000040000fa
:0400fc00620400009a
:020000040000fa
:040100006204000095
:020000040000fa
:040104006204000091
:020000040000fa
:04010800620400008d
:020000040000fa
:04010c006204000089
:020000040000fa
:040110006204000085
:020000040000fa
:040114006204000081
:020000040000fa
:04011800620400007d
:020000040000fa
:04011c006204000079
:020000040000fa
:040120006204000075
:020000040000fa
:040124006204000071
:020000040000fa
:04012800620400006d
:020000040000fa
:04012c006204000069
:020000040000fa
:040130006204000065
:020000040000fa
:040134006204000061
:020000040000fa
:04013800620400005d
:020000040000fa
:04013c006204000059
:020000040000fa
:040140006204000055
:020000040000fa
:040144006204000051
:020000040000fa
:04014800620400004d
:020000040000fa
:04014c006204000049
:020000040000fa
:040150006204000045
:020000040000fa
:040154006204000041
:020000040000fa
:04015800620400003d
:020000040000fa
:04015c006204000039
:020000040000fa
:040160006204000035
:020000040000fa
:040164006204000031
:020000040000fa
:04016800620400002d
:020000040000fa
:04016c006204000029
:020000040000fa
:040170006204000025
:020000040000fa
:040174006204000021
:020000040000fa
:04017800620400001d
:020000040000fa
:04017c006204000019
:020000040000fa
:040180006204000015
:020000040000fa
:040184006204000011
:020000040000fa
:04018800620400000d
:020000040000fa
:04018c006204000009
:020000040000fa
:040190006204000005
:020000040000fa
:040194006204000001
:020000040000fa
:0401980062040000fd
:020000040000fa
:04019c0062040000f9
:020000040000fa
:0401a00062040000f5
:020000040000fa
:0401a40062040000f1
:020000040000fa
:0401a80062040000ed
:020000040000fa
:0401ac0062040000e9
:020000040000fa
:0401b00062040000e5
:020000040000fa
:0401b40062040000e1
:020000040000fa
:0401b80062040000dd
:020000040000fa
:0401bc0062040000d9
:020000040000fa
:0401c00062040000d5
:020000040000fa
:0401c40062040000d1
:020000040000fa
:0401c80062040000cd
:020000040000fa
:0401cc0062040000c9
:020000040000fa
:0401d00062040000c5
:020000040000fa
:0401d40062040000c1
:020000040000fa
:0401d80062040000bd
:020000040000fa
:0401dc0062040000b9
:020000040000fa
:0401e00062040000b5
:020000040000fa
:0401e40062040000b1
:020000040000fa
:0401e80062040000ad
:020000040000fa
:0401ec0062040000a9
:020000040000fa
:0401f00062040000a5
:020000040000fa
:0401f40062040000a1
:020000040000fa
:0401f800620400009d
:020000040000fa
:0401fc006204000099
:020000040000fa
:040200006204000094
:020000040000fa
:040204006204000090
:020000040000fa
:04020800620400008c
:020000040000fa
:04020c006204000088
:020000040000fa
:040210006204000084
:020000040000fa
:040214006204000080
:020000040000fa
:04021800620400007c
:020000040000fa
:04021c006204000078
:020000040000fa
:040220006204000074
:020000040000fa
:040224006204000070
:020000040000fa
:04022800620400006c
:020000040000fa
:04022c006204000068
:020000040000fa
:040230006204000064
:020000040000fa
:040234006204000060
:020000040000fa
:04023800620400005c
:020000040000fa
:04023c006204000058
:020000040000fa
:040240006204000054
:020000040000fa
:040244006204000050
:020000040000fa
:04024800620400004c
:020000040000fa
:04024c006204000048
:020000040000fa
:040250006204000044
:020000040000fa
:040254006204000040
:020000040000fa
:04025800620400003c
:020000040000fa
:04025c006204000038
:020000040000fa
:040260006204000034
:020000040000fa
:040264006204000030
:020000040000fa
:04026800620400002c
:020000040000fa
:04026c006204000028
:020000040000fa
:040270006204000024
:020000040000fa
:040274006204000020
:020000040000fa
:04027800620400001c
:020000040000fa
:04027c006204000018
:020000040000fa
:040280006204000014
:020000040000fa
:040284006204000010
:020000040000fa
:04028800620400000c
:020000040000fa
:04028c006204000008
:020000040000fa
:040290006204000004
:020000040000fa
:040294006204000000
:020000040000fa
:0402980062040000fc
:020000040000fa
:04029c0062040000f8
:020000040000fa
:0402a00062040000f4
:020000040000fa
:0402a40062040000f0
:020000040000fa
:0402a80062040000ec
:020000040000fa
:0402ac0062040000e8
:020000040000fa
:0402b00062040000e4
:020000040000fa
:0402b40062040000e0
:020000040000fa
:0402b80062040000dc
:020000040000fa
:0402bc0062040000d8
:020000040000fa
:0402c00062040000d4
:020000040000fa
:0402c40062040000d0
:020000040000fa
:0402c80062040000cc
:020000040000fa
:0402cc0062040000c8
:020000040000fa
:0402d00062040000c4
:020000040000fa
:0402d40062040000c0
:020000040000fa
:0402d80062040000bc
:020000040000fa
:0402dc0062040000b8
:020000040000fa
:0402e00062040000b4
:020000040000fa
:0402e40062040000b0
:020000040000fa
:0402e80062040000ac
:020000040000fa
:0402ec0062040000a8
:020000040000fa
:0402f00062040000a4
:020000040000fa
:0402f40062040000a0
:020000040000fa
:0402f800620400009c
:020000040000fa
:0402fc006204000098
:020000040000fa
:040300006204000093
:020000040000fa
:04030400620400008f
:020000040000fa
:04030800620400008b
:020000040000fa
:04030c006204000087
:020000040000fa
:040310006204000083
:020000040000fa
:04031400620400007f
:020000040000fa
:04031800620400007b
:020000040000fa
:04031c000a040000cf
:020000040000fa
:040320006204000073
:020000040000fa
:04032400620400006f
:020000040000fa
:04032800620400006b
:020000040000fa
:04032c006204000067
:020000040000fa
:040330006204000063
:020000040000fa
:04033400620400005f
:020000040000fa
:10040000ef0a21000eff26000e0188000000000008
:10041000000020000000e000020032000001200087
:100420002002880014000700440107000000e000db
:1004300003003a0040fe20000100200002003700c7
:100440000000200001002000810f70000100320038
:100450000f000700000020000000e0000200320052
:100460000000020000000000421102000000000035
:100470000040da000000fe00800020000000e000e4
:1004800002003200002020009001880000000600d9
:10049000a1028800800478000000eb001f003700f4
:1004a000e284440054a0b4009905ba00e2844400f8
:1004b00054a0b4009906ba00e284440054a0b400e9
:1004c0000006eb00476fde00fd07b200ae018800ba
:1004d000636ce10003003a000ad801000000eb0061
:1004e0000e003700606ce10008003a00004deb00a0
:1004f0000a05e800020039003420ec000af0a000f0
:100500008b05e900f9ff3e00040037006168e10057
:10051000010032000086eb000b00070019c7ba008b
:100520001905ba000e04e00003003a000a00e000da
:10053000dbff3a0000000600fe07b200ae028800b2
:100540008a047800f5ff37000cd0a300e20f4d00bd
:100550001c00390089027800354dba000a05e80010
:10056000020039003420ec000af0a0008b05e900fd
:100570000f003200254dba000a05e80002003900dc
:100580003420ec000af0a0008b05e90008003200de
:100590000c00e0000600320015cdba000a05e800a4
:1005a000020039003420ec000af0a0008b05e900bd
:1005b0008984e80054a0b4000b00e000e2ff3a0098
:1005c000000006009902ba00055d78008b05e9007d
:1005d000f7ff3200c82ade00055d78008b05e900d0
:1005e000f3ff32000c00e000f1ff320019ddba0029
:1005f000eeff3700d80a040000000000f60a0400ed
:10060000000000003600f800c028a9000000eb0040
:10061000110707003600f80013070700c048a900bb
:10062000100020000c0707003600f800c068a90081
:1006300020002000080707003600f800c088a90045
:1006400030002000040707003600f800c608a900a3
:1006500070002000000707003600f800c408a90059
:10066000b0002000fc0607003600f800809fbe00a6
:10067000829fbe00849fbe00869fbe000000fa00dd
:1006800050808000000001003180800020808000c8
:10069000808f500002003a002188a900180037001e
:1006a0000188a90010003700308080009040780059
:1006b0008180fb00411288000000e8003080880043
:1006c00031808000f0092100808f500002003a0044
:1006d0006009210030808800318080002080800007
:1006e000808f500005003200f01180007000600023
:1006f0000000e000ecff32000100370000000000c5
:100700000080fa004f03be004f02be004f01be0042
:100710004f00be003600f900004006003600f80029
:10072000809fbe00829fbe00849fbe00869fbe0049
:100730000000fa0060808000000001000168a9004c
:100740001e00370000808000211280008140780068
:100750000148780001808000700a2100808f5000dd
:1007600009003200008080008000e80010808000d6
:10077000808f500004003200008080000000e800fc
:10078000008088000d00370001808000700a210081
:10079000808f500007003a0011808000f00921008e
:1007a000808f500003003200f00921000080880093
:1007b0000200370010c0b30008f0b700f01180004d
:1007c000620060000000e000deff32000080fa00fe
:1007d0004f03be004f02be004f01be004f00be00df
:1007e0003600f90000400600801f78000000fa0083
:1007f000e0118000620060000000e00001003200b3
:100800003c22a9000628a9000080fa004f007800c9
:10081000004006000000fa0017a8a9000080fa00b6
:10082000004006003600f800809fbe00829fbe0098
:10083000849fbe00869fbe000000fa000140800039
:1008400000042000008060000000e0000200320090
:100850006d05070000c8a9000080fa004f03be0024
:100860004f02be004f01be004f00be003600f9002f
:10087000004006003600f800809fbe00829fbe0048
:10088000849fbe00869fbe000000fa0001408000e9
:1008900000082000008060000000e000020032003c
:1008a0005c05070000e8a9000080fa004f03be00c5
:1008b0004f02be004f01be004f00be003600f900df
:1008c000004006000040da000000fe000a00fa00c6
:1008d000200798003107980042079800be0090005a
:1008e000110798000000eb00000f78000c003700a3
:1008f00000000000760307000004a2000004e000ee
:10090000fcff3a001e009000104078009e0090000e
:100910008100e800110798004d0307001e0fe80052
:100920004e0090009e007800808f5000f0ff39004c
:100930004e0090000080fa00000006000000050054
:100940000000fa0068815700cfb89700c005210069
:100950000b0007000080fa0000000600d0019000a4
:10096000028151004240a9000300340010017800c8
:10097000014978000208e800010078000000060044
:10098000f4874700889fbe008a9fbe008c9fbe00f0
:100990008e1f780080047800d1b79f00020778008e
:1009a0000004eb0026023700dfb097008100e8006a
:1009b000d1b79f0051c2b300814f500003003a00ed
:1009c0005fb097008046eb0011003700b90090003f
:1009d0000000fb000168a300070032000801780056
:1009e0008000780009007800dcff07000000e000cc
:1009f00005003a0012023700890078001c02070047
:100a0000e10f40000e0232000804e8000c0237003b
:100a10008000780030417800d3c2b300834f51008a
:100a20000c00320007003c00edc15100834f510023
:100a30000a003200ebc14100834f51000d003a0023
:100a40000800370003c3b300834f510009003a0088
:100a5000060037000d34a000edff37000d04a000a4
:100a6000ebff37000d14a000e9ff37000d24a000b4
:100a7000e7ff37000d18a300010032000d04a100ac
:100a80000d38a300010032000d24a1000200fb007c
:100a90000003b100e90f50000c003e000101780096
:100aa0000000eb006a00b900b201fb000303b100d3
:100ab00000804100820078009201fb000303b10036
:100ac000e98f5100f7ff3600060037000000eb0009
:100ad000a3c2b300834f510002003a004e007800d9
:100ae0008100e8000006eb00e2c2b300914f110064
:100af00008003a0064415100d14f11000300320058
:100b0000010178000d427800060037004e0678009b
:100b10008100e80001017800090037006a66b90029
:100b20000c86410082007800b201fb000303b10093
:100b3000e98f5100f9ff360084467800f5ff370051
:100b400082017800b34078000301780034c7b30015
:100b500084cf5000180032000a003c00704252005e
:100b600084cf5000730032006942420084cf5000ad
:100b70000c003200d3b79f000104e000b501320041
:100b800082003700d3b79f0052c7b30082cf500016
:100b9000830032006341410082cf50007b003a0065
:100ba000020037000d44a000e5ff370081e79f00f9
:100bb0000d74a0007d003700d3b79f0081e79f0030
:100bc000ce007800010578000100e00001003a0045
:100bd0000a0121000a0178008000eb0001003700c3
:100be0008100e800e2c178000304e000fcff3a0065
:100bf000810578000c00e000030032008b0f5600e6
:100c0000010031008c0578000006eb008b0f5000ce
:100c1000010036000b065000e88666002a003a0004
:100c200011003700390090000068a300070032006f
:100c300008017800010220000900780047ff070042
:100c40000000e00006003a00060037008900780046
:100c50000002200086010700e10f40000100320081
:100c60000804e8000c06e9000c00e000edff3a0083
:100c70000086eb0014003700390090000068a300e4
:100c8000090032000a007800b000fb00000578007f
:100c9000080178000900780030ff07000000e0003c
:100ca00008003a00080037008a0078003100fb0095
:100cb00001057800890078006d010700e10f400010
:100cc000010032000804e8000b0078008005e9000c
:100cd0000000e000e8ff3a000d00e000580132009b
:100ce00011003700390090000068a30007003200af
:100cf00008017800010220000900780017ff0700b2
:100d00000000e00006003a00060037008900780085
:100d10000002200056010700e10f400001003200f0
:100d20000804e8000c06e9000c00e000edff3a00c2
:100d300043013700d3b79f004e017800cf91de000a
:100d4000c81ade00c818dd004812de0004827000f8
:100d500084e79f000d48a300080032000404e0006f
:100d600006003200e14f42000400320094e79f0089
:100d7000a2e79f002b0020000200370092e79f00af
:100d80001b0020007f8557009aff370081e79f00f6
:100d90000afe2f000f0545001b00200095ff3700bd
:100da00081e79f0001ccb30081c676008d86fb00f1
:100db000edb79f008d017800f0816100b3b79f000f
:100dc000020032004e05be00020037004e057800da
:100dd0008005eb000c00e00005003a000a86750073
:100de0000cf0a7000c06ea000c06e9004f66de00d6
:100df0006fb29700040cb200c4b79f000108200036
:100e0000810f52000d003200010c2000810f5200b2
:100e100018003a008202210011c0b30064014100b1
:100e2000b20f5500a28f5d00110039008140e8002b
:100e3000eacf5000f9ff3a000d00370011c0b300af
:100e40000201200003002000820f5500838f5d0007
:100e500007003900441add00cc11de008301720066
:100e60004411dd008140e800e8cf5000f6ff3a0071
:100e700081e79f000fe197008200fb008c8f5000fc
:100e800002003d008ce79f0003003700810f5600f1
:100e900001003d00010678000000e000040032007f
:100ea000efb19700e3806100010032000000e9002b
:100eb0000fe297008400fb008006eb00810f5000da
:100ec00001003400810650006fb097000028a30095
:100ed00038003200610160000018a3000f003200ea
:100ee000390090000068a30006003200b102200023
:100ef0000200e000010032008180e8000801780073
:100f00000d003700b00220000200e00001003200b6
:100f10000080e800890078000e0037000200e00041
:100f200010003200390090000068a3000700320072
:100f300008017800010220000900780087fe070000
:100f40000000e00006003a00060037008900780043
:100f500000022000c6000700e10f4000010032003f
:100f60000804e8000d00e0004e0032003900900057
:100f70000068a30007003200080178000103200088
:100f80000900780075fe07000000e00006003a0046
:100f9000060037008900780000032000b400070035
:100fa000e10f4000010032000804e8008d06e9006e
:100fb000ecff37000d00e00015003200efb09700a5
:100fc0000138a30012003a00390090000068a30025
:100fd00007003200080178000102200009007800b3
:100fe0005efe07000000e00006003a000600370041
:100ff00089007800000220009d000700e10f4000fa
:10100000010032000804e8008d06e900eeff3a0016
:10101000efb19700618161000318a3000f00320057
:10102000390090000068a30006003200b1022000e1
:101030000200e000010032008180e8000801780031
:101040000d003700b00220000200e0000100320075
:101050000080e800890078000e0037000200e00000
:1010600010003200390090000068a3000700320031
:1010700008017800010220000900780037fe07000f
:101080000000e00006003a00060037008900780002
:101090000002200076000700e10f4000010032004e
:1010a0000804e8000c03e9004233dd00800221005f
:1010b00000034300adb79f008c0678000606780059
:1010c000450037008d06e900000820004fb2970068
:1010d000800f520021003200000c2000800f5200cf
:1010e0002b003a003fb097000000e00010003200f3
:1010f0001c02be000401be000a00be00f4b79f003f
:1011000085bf9f00dc00070080e79f000000fb0018
:10111000cf80de007fb297008fba97000401be0037
:10112000e50007000005550081855d0007003700d8
:101130001c017800050009000285d800a2002000eb
:10114000050009000280d80081e79f008fe097002a
:101150000143b00081e79f000d00370080022100ad
:10116000000056000a01be00000278000402e900f7
:10117000030033008301d1000281d300fbff37005d
:101180006f006100710121006140780080e79f00dd
:10119000b90090000fe197000200fb000168a30076
:1011a000070032000801780080007800090078000c
:1011b000eafd07000000e00005003a0005003700e6
:1011c000890078002a000700e10f4000010032008a
:1011d0000804e800640656000d00e000b9ff3a007c
:1011e000afb69700efb197000338a30014003200a8
:1011f0000d00e00012003400390090000068a300e8
:101200000700320008017800010220000900780080
:10121000d2fd07000000e00006003a00060037009b
:10122000890078000002200011000700e10f400053
:10123000010032000804e8008d06e900eeff3a00e4
:101240005fb297001440780080e79f000004e00040
:10125000d5fd3a00080078004f0778004f06be0021
:101260004f05be004f04be004f01b1000000060054
:10127000889fbe0001047800b80090008084eb00d5
:101280000118a3003a003200180190000198a30051
:1012900002003a000200e00035003a000190a00090
:1012a0003104980080047800f90fb2000200e000d9
:1012b00002003a0028009000000c7800ea8f5400e9
:1012c00005003a000178a30003003a008800780086
:1012d000d0002000e6ff070018009000d800900022
:1012e000810f50000b0032000000e800100498004d
:1012f0001800780009487800000ce80011c0b3001d
:10130000800a210001487800ea8f540018003a0052
:1013100005003700880078000940780017000700b2
:101320008004780012003700380090000088a30085
:101330000f00320018019000a800900048009000b3
:1013400062fd070098009000810f500004003200f9
:10135000380090000003b300300498008084eb0054
:101360000000eb001004980028009000000c7800aa
:10137000090078004f04be00000006000200fa00d9
:10138000889fbe00a0ff9f000104780038009000f5
:101390000068a30033003a00e200600005003a0054
:1013a0000003b30030049800110498000080eb00a3
:1013b0002e003700d80490000900e00006003a0033
:1013c00012002000e6805700480090003ffd070013
:1013d0001904980023003700a80090000100e000e5
:1013e00008003a00b10a210021049800010c78009d
:1013f0002100200051049800110498000030a00042
:101400003004980018019000a80090004800900057
:101410002efd0700280090008080eb00110498004a
:10142000aff8970001487800000ce8002ff897000b
:10143000ea4f50000b003a00380090000088a300eb
:101440000800320018019000a800900048009000a9
:101450001efd07000000eb0010049800a80090009b
:10146000010c7800aff897000100fb004f04be00ac
:101470000080fa00000006006022b800060220008a
:101480000000d0008180d2000482d2008582d20088
:101490000000a0000202520083825a0003003100c3
:1014a0000202420083824a000000a1000603e90014
:1014b000f3ff3a0000000600020ab900001bb90061
:1014c0000200b800810042008100430000000600d5
:020000040000fa
:1014d000486500006c6c00006f20000000000000f8
:020000040000fa
:1014e0000000fa002188a9002168a9000008200056
:1014f000c01188003a22ef003c22ef0020022000b9
:10150000f011880090012000001288004222ef00b4
:101510004c22ef004e22ef005022ef005222ef004b
:101520005422ef005622ef005822ef005a22ef001b
:101530005c22ef00600921003080880060092100f2
:1015400020808800f009210010808800f009210027
:10155000008088000870ef0080ad200008000700c0
:1015600060af2000150007002168a80039e2a8003c
:1015700038a2a8003882a8000080fa000000060007
:101580000200fa00000f78001e0078000000e00062
:1015900003003a0080ad2000508088000200370030
:1015a0001e007800508088000080fa0000000600cd
:1015b0000000fa000080fa00000006000200fa00b5
:1015c000000f78001e0078000000e00003003a00e1
:1015d00060af200060808800020037001e007800a5
:1015e000608088000080fa00000006000000fa0019
:1015f0000080fa00000006000200fa000040eb0044
:10160000004f780000000000118080000080800002
:10161000808f5000fcff320010808000104f780057
:10162000108080000000e800108088001180800099
:10163000800a2100808f500002003a00f00921004a
:10164000108088001e4078000080fa00000006002c
:101650000200fa00004f7800000000001c000700a4
:101660000004a2000004e000fcff3a00208080009b
:101670001e487800208080000000e800208088005c
:1016800021808000f0092100808f500002003a0084
:1016900060092100208088002188a8000080fa00cd
:1016a000000006000000fa00118080000080800029
:1016b0000080680000f0a7000000ea000000ea00d7
:1016c0004f00de00004078000080fa0000000600b5
:1016d0000400fa003180800011079800218080000a
:1016e0001e009000808f5000060031009e00900088
:1016f00020808000008050000000e900000f78008a
:10170000050037009e00900020808000008050007f
:1017100068004000000f78001e00780000f0a7006d
:101720000000ea000000ea004f00de000040780000
:101730000080fa00000006000000fa00218080000e
:1017400030808000808f500009003a00e111800055
:10175000000820000080600000f0a7000000ea0000
:101760000000ea004f00de00004078000100370072
:101770000040eb000080fa00000006000400fa00c0
:101780000180800011079800108080009e0090006a
:10179000808f5000060031009e0090001080800075
:1017a0000080500069004000000f780004003700fe
:1017b0009e0090001080800000805000000f780094
:1017c000f00f20009e007800808f5000020036004d
:1017d00000c0eb00020037001e00780000407800d7
:1017e0000080fa00000006000400fa00318080004a
:1017f00011079800218080001e009000808f50000b
:10180000060031009e009000208080000080500083
:101810000000e900000f7800050037009e009000ee
:10182000208080000080500068004000000f780099
:10183000f00f20009e007800808f500002003600dc
:1018400000c0eb00020037001e0078000040780066
:101850000080fa00000006000800fa002007980047
:1018600031079800c5ff07000080fb00000f7800db
:101870003e0090009e0f500002003100be0090001c
:10188000010f78000000eb001007980009003700f6
:1018900059ff0700ae009000804878002e009000ad
:1018a0000000e800200798001e0090000000e800fb
:1018b000100798001e0090009e0f5000f4ff3900a2
:1018c0001e0078000080fa00000006000800fa0000
:1018d0002007980031079800c3ff07000080fb0035
:1018e000000f78003e0090009e0f50000200310073
:1018f000be009000010f78000000eb001007980078
:10190000090037002e00900010407800ae009000d3
:101910008100e800210798004dff07001e0090009d
:101920000000e800100798001e0090009e0f500075
:10193000f4ff39001e0078000080fa000000060065
:101940000400fa000000eb00000f78008bff070096
:1019500020479800a4ff0700304798002e409000d1
:101960000080fb000000e00003003200e90f50009f
:1019700003003200040037001e20a00004003700de
:101980001e00a000020037001e10a0000000000092
:101990003e4090000080fb000000e00003003200a9
:1019a000e90f500003003200040037001e30a00091
:1019b000020037001e40a000000000001e0078005a
:1019c0000080fa00000006000400fa0010079800ea
:1019d000118080001e009000008f40000200370040
:1019e0009e007800698f5000800a21009e007800d8
:1019f000808f5000faff3e001e00780010407800f3
:101a00000080fa00000006000000fa005bff0700fb
:101a10000080fb000000e9004f00de00004078007d
:101a20000080fa00000006000000fa006eff0700c8
:101a30000080fb000000e9004f00de00004078005d
:101a40000080fa00000006000400fa00f011800097
:101a50008000eb00008fbe001e00be00c001dd0054
:101a600002002000e01180008000eb000000710007
:101a7000818071000080fa00000006000000fa007a
:101a800059ff07000004e0001000320031808000a0
:101a900020808000808f500006003600308080005b
:101aa0008000780020808000008050000000e90065
:101ab00007003700308080008000780020808000a0
:101ac0000080500068004000010037000000eb007b
:101ad0000080fa00000006000000fa0027ff07005f
:101ae0000004e000100032001180800000808000bf
:101af000808f500006003600108080008000780043
:101b000000808000008050000000e90007003700de
:101b100010808000800078000080800000805000ed
:101b200068004000010037000000eb000080fa0070
:101b3000000006000000fa0039e2a80038a2a80060
:101b40003882a8000080fa00000006000000fa00b9
:101b500039e2a90038a2a9003882a9000080fa0061
:101b6000000006000000fa00007c80000080fa00ff
:101b7000000006000200fa00faff0700000f7800dc
:101b80001e007800240007000004e000020032007c
:101b900000002800710007001e0078002a000700de
:101ba0000004e00002003200000024006b00070087
:101bb0001e007800320007000004e000020032003e
:101bc00000202000650007001e0078003a00070092
:101bd0000004e00002003200000820005f0007005f
:101be0001e007800420007000004e00002003200fe
:101bf00000042000590007001e0078004a0007007a
:101c00000004e00002003200000120005300070041
:101c10000080fa00000006000400fa001007980097
:101c20000040eb00004f78001e0090000000e00034
:101c300002003d0010c0b300004f78001e40780045
:101c40000080fa00000006000400fa001007980067
:101c50000040eb00004f78009e0090000000240040
:101c6000008060000000e0000200320010c0b300fd
:101c7000004f78001e4078000080fa000000060047
:101c80000400fa00100798000040eb00004f7800b5
:101c90009e00900000202000008060000000e00016
:101ca0000200320010c0b300004f78001e407800e0
:101cb0000080fa00000006000400fa0010079800f7
:101cc0000040eb00004f78009e00900000082000cc
:101cd000008060000000e0000200320010c0b3008d
:101ce000004f78001e4078000080fa0000000600d7
:101cf0000400fa00100798000040eb00004f780045
:101d00009e00900000042000008060000000e000c1
:101d10000200320010c0b300004f78001e4078006f
:101d20000080fa00000006000400fa001007980086
:101d30000040eb00004f78001e0090007000600033
:101d40000000e0000200320010c0b300004f780035
:101d50001e4078000080fa00000006000200fa0031
:101d6000000f78009e80ea00007c80000080600008
:101d7000007c88000080fa00000006000000fa00e5
:101d8000802fef000080fa00000006000000fa003b
:101d900010732000804a88005229ef005429ef0078
:101da0005629ef005a29ef005c29ef006029ef0067
:101db0006229ef006429ef006629ef006829ef002f
:101dc0006c29ef007029ef007229ef0051e9a8009b
:101dd00000c8a90020c8a80000e8a90020e8a800c1
:101de0000080fa00000006000000fa0051e9a80097
:101df0000080fa00000006000000fa0051e9a90086
:101e00000080fa00000006000000fa000080fa00de
:101e1000000006000000fa000080fa000000060042
:101e20000400fa000080eb008080eb00008fbe0011
:101e3000804b80008000eb00008fbe00904b800044
:101e40008000eb00c000dd00000020001e1f7000bd
:101e50001e9770001e00be000080fa000000060001
:101e60000000fa0011a00a005c0900000080fb00dd
:101e700000f0a7000000ea000000ea004f00de00ca
:101e8000004078000080fa00000006000000fa0020
:101e9000e04a80006100600000f0a7000000ea0056
:101ea0000000e9004f00de00004078000080fa00ea
:101eb000000006000000fa005c29a9000080fa007a
:101ec000000006000000fa00062eef00222eef00b0
:101ed0003e2eef0000012000d0728800762eef0029
:101ee000f001200010708800d0ff2f00f0708800f3
:101ef0000080eb00d0718800f0fe2f00b0728800e7
:101f00000080eb00907388000c2eef00282eef006d
:101f1000442eef00602eef007c2eef000a2eef0023
:101f2000262eef00422eef005e2eef007a2eef00fd
:101f3000082eef00242eef00402eef005c2eef0065
:101f4000782eef00f001200000708800c0392000da
:101f5000e0708800f00c2000c071880000c02200f2
:101f6000a0728800f0002000807388000000eb0061
:101f700051052000b1468800a10a2000b146880022
:101f80000068880030c4b30028edb70000c4b30077
:101f90000bedb70010c4b3000aedb700110020002c
:101fa00050210a00a40d00000080200051052000ef
:101fb000b1468800a10a2000b14688000068880068
:081fc0000080fa000000060099
:020000040000fa
:101fc8007610000020000000800000000e100000c5
:101fd8000200000082000000ffff000096100000d1
:101fe8001200000080000000001000000e00000039
:101ff8008000000010100000400000008200000077
:10200800286e75006c6c29000030310032333400c2
:102018003536370038396100626364006566000050
:1020280001000000000a0000000064000000000039
:10203800e8030000001027000000a000860100004f
:1020480040420f000080960098000000e1f505006e
:1020580000ca9a003b000000501000002600000053
:1020680082000000a910000000a91000090000006b
:1020780000020000ab10000000ab10000e020100cf
:10208800000000000000000000000000060202003e
:102098000000000050100000a8100000060000001a
:0820a8008000000000000000b0
:020000040000fa
:1020b0000000fa0010002300307c88006009200036
:1020c000407c88008c2fef0010042000507c88009a
:1020d00010102000707c880060092000807c88003f
:1020e00010042000907c88009a2fef00b82fef009a
:1020f000ba2fef00be2fef00002def00a02fef0052
:10210000a42fef00a62fef00a82fef00aa2fef00bb
:10211000ae2fef00b02fef00b22fef002200200013
:1021200080072000a109200053f820008049780092
:1021300081497800824978000001eb0060042000aa
:102140007105200043f8200080497800814978001b
:10215000824978000080fa00000006000200fa00c0
:10216000000f780021028000200f20000080600016
:102170001e007000200288000080fa0000000600a7
:102180000000fa00c3e8a800000000000000000002
:102190000080fa00000006000000fa0049ff070076
:1021a000c3ff070007000700f8fe0700ccfc07008c
:1021b000f3ff070000022000e8ff07000080fa009c
:1021c000000006000000fa0011002000a8210a000b
:1021d0004208000011002000ec210a004208000023
:1021e0001100200064210a009e0800001100200058
:1021f00020210a00460800001100200064210a0086
:102200005808000011002000ec210a0044080000da
:102210000080fa00000006000000fa00a4ff07009a
:102220000080fa00000006000000fa00007c800038
:102230000080fa00000006000000fa004dfe0700d2
:102240000080fa00000006000000fa00cbfe070044
:102250000080fa0000000600000f78009e00780061
:1022600071808800ffff37000000fa00600721003e
:1022700080077800e0082100000188000080fa0053
:10228000000006000000fa00c3ff070080a6280037
:10229000801f7800aaf907008f87e900ffff370049
:020000040000fa
:020000040005f5
:047e0000ffff000080
:020000040000fa
:020000040005f5
:047e2000ffffff0061
:020000040000fa
:020000040005f5
:047e30007affff00d6
:020000040000fa
:020000040005f5
:047e3800bcffff008c
:020000040000fa
:020000040005f5
:047e40007f7fff0041
:020000040000fa
:020000040005f5
:047e4800ffffff0039
:020000040000fa
:020000040005f5
:047e5000ddffff0053
:020000040000fa
:020000040005f5
:047e58000000ff0027
:020000040000fa
:020000040005f5
:047e60000000ff001f
:020000040000fa
:020000040005f5
:047e68000000ff0017
:020000040000fa
:020000040005f5
:047e70000000ff000f
:020000040000fa
:020000040005f5
:047e7800ffffff0009
:020000040000fa
:020000040005f5
:047e8000fffcff0004
:020000040000fa
:020000040005f5
:047e8800ffffff00f9
:020000040000fa
:020000040005f5
:047ff800ffffff0088
:020000040000fa
:020000040100f9
:04300000ffffff00cf
:00000001FF
